{
  "_format": "hh-sol-artifact-1",
  "contractName": "NeoFlexCore",
  "sourceName": "contracts/NeoFlexCore.sol",
  "abi": [
    {
      "inputs": [
        {
          "internalType": "address",
          "name": "_governanceContract",
          "type": "address"
        },
        {
          "internalType": "address",
          "name": "_currentValidator",
          "type": "address"
        },
        {
          "internalType": "address",
          "name": "_xGASToken",
          "type": "address"
        },
        {
          "internalType": "address",
          "name": "_unstakeNFT",
          "type": "address"
        }
      ],
      "stateMutability": "nonpayable",
      "type": "constructor"
    },
    {
      "anonymous": false,
      "inputs": [
        {
          "indexed": false,
          "internalType": "string",
          "name": "message",
          "type": "string"
        },
        {
          "indexed": false,
          "internalType": "uint256",
          "name": "value",
          "type": "uint256"
        }
      ],
      "name": "DebugLog",
      "type": "event"
    },
    {
      "anonymous": false,
      "inputs": [
        {
          "indexed": true,
          "internalType": "address",
          "name": "user",
          "type": "address"
        },
        {
          "indexed": false,
          "internalType": "uint256",
          "name": "gasAmount",
          "type": "uint256"
        },
        {
          "indexed": false,
          "internalType": "uint256",
          "name": "xGasAmount",
          "type": "uint256"
        }
      ],
      "name": "Deposited",
      "type": "event"
    },
    {
      "anonymous": false,
      "inputs": [
        {
          "indexed": false,
          "internalType": "string",
          "name": "message",
          "type": "string"
        },
        {
          "indexed": false,
          "internalType": "string",
          "name": "reason",
          "type": "string"
        }
      ],
      "name": "ErrorLog",
      "type": "event"
    },
    {
      "anonymous": false,
      "inputs": [
        {
          "indexed": true,
          "internalType": "address",
          "name": "oldGovernance",
          "type": "address"
        },
        {
          "indexed": true,
          "internalType": "address",
          "name": "newGovernance",
          "type": "address"
        }
      ],
      "name": "GovernanceContractUpdated",
      "type": "event"
    },
    {
      "anonymous": false,
      "inputs": [
        {
          "indexed": true,
          "internalType": "address",
          "name": "previousOwner",
          "type": "address"
        },
        {
          "indexed": true,
          "internalType": "address",
          "name": "newOwner",
          "type": "address"
        }
      ],
      "name": "OwnershipTransferred",
      "type": "event"
    },
    {
      "anonymous": false,
      "inputs": [
        {
          "indexed": false,
          "internalType": "address",
          "name": "account",
          "type": "address"
        }
      ],
      "name": "Paused",
      "type": "event"
    },
    {
      "anonymous": false,
      "inputs": [
        {
          "indexed": false,
          "internalType": "uint256",
          "name": "amount",
          "type": "uint256"
        }
      ],
      "name": "RewardsHarvested",
      "type": "event"
    },
    {
      "anonymous": false,
      "inputs": [
        {
          "indexed": false,
          "internalType": "address",
          "name": "account",
          "type": "address"
        }
      ],
      "name": "Unpaused",
      "type": "event"
    },
    {
      "anonymous": false,
      "inputs": [
        {
          "indexed": true,
          "internalType": "address",
          "name": "user",
          "type": "address"
        },
        {
          "indexed": false,
          "internalType": "uint256",
          "name": "xGasAmount",
          "type": "uint256"
        },
        {
          "indexed": false,
          "internalType": "uint256",
          "name": "nftId",
          "type": "uint256"
        }
      ],
      "name": "UnstakeRequested",
      "type": "event"
    },
    {
      "anonymous": false,
      "inputs": [
        {
          "indexed": true,
          "internalType": "address",
          "name": "newValidator",
          "type": "address"
        }
      ],
      "name": "ValidatorUpdated",
      "type": "event"
    },
    {
      "anonymous": false,
      "inputs": [
        {
          "indexed": true,
          "internalType": "address",
          "name": "user",
          "type": "address"
        },
        {
          "indexed": false,
          "internalType": "uint256",
          "name": "gasAmount",
          "type": "uint256"
        }
      ],
      "name": "Withdrawn",
      "type": "event"
    },
    {
      "inputs": [],
      "name": "EPOCH_DURATION",
      "outputs": [
        {
          "internalType": "uint256",
          "name": "",
          "type": "uint256"
        }
      ],
      "stateMutability": "view",
      "type": "function"
    },
    {
      "inputs": [],
      "name": "UNSTAKE_PERIOD",
      "outputs": [
        {
          "internalType": "uint256",
          "name": "",
          "type": "uint256"
        }
      ],
      "stateMutability": "view",
      "type": "function"
    },
    {
      "inputs": [],
      "name": "accumulatedRewards",
      "outputs": [
        {
          "internalType": "uint256",
          "name": "",
          "type": "uint256"
        }
      ],
      "stateMutability": "view",
      "type": "function"
    },
    {
      "inputs": [],
      "name": "addAccumulatedRewards",
      "outputs": [],
      "stateMutability": "payable",
      "type": "function"
    },
    {
      "inputs": [
        {
          "internalType": "uint256",
          "name": "nftId",
          "type": "uint256"
        }
      ],
      "name": "claimUnstake",
      "outputs": [],
      "stateMutability": "nonpayable",
      "type": "function"
    },
    {
      "inputs": [],
      "name": "currentValidator",
      "outputs": [
        {
          "internalType": "address",
          "name": "",
          "type": "address"
        }
      ],
      "stateMutability": "view",
      "type": "function"
    },
    {
      "inputs": [],
      "name": "deposit",
      "outputs": [],
      "stateMutability": "payable",
      "type": "function"
    },
    {
      "inputs": [
        {
          "internalType": "uint256",
          "name": "gasAmount",
          "type": "uint256"
        }
      ],
      "name": "getGasToXGasRatio",
      "outputs": [
        {
          "internalType": "uint256",
          "name": "",
          "type": "uint256"
        }
      ],
      "stateMutability": "view",
      "type": "function"
    },
    {
      "inputs": [
        {
          "internalType": "uint256",
          "name": "xGasAmount",
          "type": "uint256"
        }
      ],
      "name": "getXGasToGasRatio",
      "outputs": [
        {
          "internalType": "uint256",
          "name": "",
          "type": "uint256"
        }
      ],
      "stateMutability": "view",
      "type": "function"
    },
    {
      "inputs": [],
      "name": "governanceContract",
      "outputs": [
        {
          "internalType": "contract INeoXGovernance",
          "name": "",
          "type": "address"
        }
      ],
      "stateMutability": "view",
      "type": "function"
    },
    {
      "inputs": [],
      "name": "lastRewardClaim",
      "outputs": [
        {
          "internalType": "uint256",
          "name": "",
          "type": "uint256"
        }
      ],
      "stateMutability": "view",
      "type": "function"
    },
    {
      "inputs": [],
      "name": "lastVoteTimestamp",
      "outputs": [
        {
          "internalType": "uint256",
          "name": "",
          "type": "uint256"
        }
      ],
      "stateMutability": "view",
      "type": "function"
    },
    {
      "inputs": [],
      "name": "owner",
      "outputs": [
        {
          "internalType": "address",
          "name": "",
          "type": "address"
        }
      ],
      "stateMutability": "view",
      "type": "function"
    },
    {
      "inputs": [],
      "name": "pause",
      "outputs": [],
      "stateMutability": "nonpayable",
      "type": "function"
    },
    {
      "inputs": [],
      "name": "paused",
      "outputs": [
        {
          "internalType": "bool",
          "name": "",
          "type": "bool"
        }
      ],
      "stateMutability": "view",
      "type": "function"
    },
    {
      "inputs": [],
      "name": "renounceOwnership",
      "outputs": [],
      "stateMutability": "nonpayable",
      "type": "function"
    },
    {
      "inputs": [
        {
          "internalType": "uint256",
          "name": "xGasAmount",
          "type": "uint256"
        }
      ],
      "name": "requestUnstake",
      "outputs": [],
      "stateMutability": "nonpayable",
      "type": "function"
    },
    {
      "inputs": [],
      "name": "totalStaked",
      "outputs": [
        {
          "internalType": "uint256",
          "name": "",
          "type": "uint256"
        }
      ],
      "stateMutability": "view",
      "type": "function"
    },
    {
      "inputs": [
        {
          "internalType": "address",
          "name": "newOwner",
          "type": "address"
        }
      ],
      "name": "transferOwnership",
      "outputs": [],
      "stateMutability": "nonpayable",
      "type": "function"
    },
    {
      "inputs": [],
      "name": "unpause",
      "outputs": [],
      "stateMutability": "nonpayable",
      "type": "function"
    },
    {
      "inputs": [],
      "name": "unstakeNFT",
      "outputs": [
        {
          "internalType": "contract UnstakeNFT",
          "name": "",
          "type": "address"
        }
      ],
      "stateMutability": "view",
      "type": "function"
    },
    {
      "inputs": [
        {
          "internalType": "address",
          "name": "_newGovernanceContract",
          "type": "address"
        }
      ],
      "name": "updateGovernanceContract",
      "outputs": [],
      "stateMutability": "nonpayable",
      "type": "function"
    },
    {
      "inputs": [
        {
          "internalType": "address",
          "name": "newValidator",
          "type": "address"
        }
      ],
      "name": "updateValidator",
      "outputs": [],
      "stateMutability": "nonpayable",
      "type": "function"
    },
    {
      "inputs": [],
      "name": "withdraw",
      "outputs": [],
      "stateMutability": "nonpayable",
      "type": "function"
    },
    {
      "inputs": [],
      "name": "xGASToken",
      "outputs": [
        {
          "internalType": "contract XGASToken",
          "name": "",
          "type": "address"
        }
      ],
      "stateMutability": "view",
      "type": "function"
    },
    {
      "stateMutability": "payable",
      "type": "receive"
    }
  ],
  "bytecode": "0x60806040523480156200001157600080fd5b5060405162003e5f38038062003e5f8339818101604052810190620000379190620004da565b60016000819055506000600160006101000a81548160ff0219169083151502179055506200007a6200006e620003f860201b60201c565b6200040060201b60201c565b600073ffffffffffffffffffffffffffffffffffffffff168473ffffffffffffffffffffffffffffffffffffffff161415620000ed576040517f08c379a0000000000000000000000000000000000000000000000000000000008152600401620000e49062000632565b60405180910390fd5b600073ffffffffffffffffffffffffffffffffffffffff168373ffffffffffffffffffffffffffffffffffffffff16141562000160576040517f08c379a0000000000000000000000000000000000000000000000000000000008152600401620001579062000610565b60405180910390fd5b600073ffffffffffffffffffffffffffffffffffffffff168273ffffffffffffffffffffffffffffffffffffffff161415620001d3576040517f08c379a0000000000000000000000000000000000000000000000000000000008152600401620001ca9062000654565b60405180910390fd5b600073ffffffffffffffffffffffffffffffffffffffff168173ffffffffffffffffffffffffffffffffffffffff16141562000246576040517f08c379a00000000000000000000000000000000000000000000000000000000081526004016200023d9062000676565b60405180910390fd5b81600260006101000a81548173ffffffffffffffffffffffffffffffffffffffff021916908373ffffffffffffffffffffffffffffffffffffffff16021790555083600360006101000a81548173ffffffffffffffffffffffffffffffffffffffff021916908373ffffffffffffffffffffffffffffffffffffffff16021790555082600660006101000a81548173ffffffffffffffffffffffffffffffffffffffff021916908373ffffffffffffffffffffffffffffffffffffffff16021790555080600460006101000a81548173ffffffffffffffffffffffffffffffffffffffff021916908373ffffffffffffffffffffffffffffffffffffffff160217905550426007819055506000471115620003ee57600360009054906101000a900473ffffffffffffffffffffffffffffffffffffffff1673ffffffffffffffffffffffffffffffffffffffff16636dd7d8ea47856040518363ffffffff1660e01b8152600401620003b99190620005f3565b6000604051808303818588803b158015620003d357600080fd5b505af1158015620003e8573d6000803e3d6000fd5b50505050505b50505050620007c1565b600033905090565b600060018054906101000a900473ffffffffffffffffffffffffffffffffffffffff169050816001806101000a81548173ffffffffffffffffffffffffffffffffffffffff021916908373ffffffffffffffffffffffffffffffffffffffff1602179055508173ffffffffffffffffffffffffffffffffffffffff168173ffffffffffffffffffffffffffffffffffffffff167f8be0079c531659141344cd1fd0a4f28419497f9722a3daafe3b4186f6b6457e060405160405180910390a35050565b600081519050620004d481620007a7565b92915050565b60008060008060808587031215620004f157600080fd5b60006200050187828801620004c3565b94505060206200051487828801620004c3565b93505060406200052787828801620004c3565b92505060606200053a87828801620004c3565b91505092959194509250565b6200055181620006a9565b82525050565b60006200056660198362000698565b91506200057382620006dd565b602082019050919050565b60006200058d60238362000698565b91506200059a8262000706565b604082019050919050565b6000620005b460198362000698565b9150620005c18262000755565b602082019050919050565b6000620005db601a8362000698565b9150620005e8826200077e565b602082019050919050565b60006020820190506200060a600083018462000546565b92915050565b600060208201905081810360008301526200062b8162000557565b9050919050565b600060208201905081810360008301526200064d816200057e565b9050919050565b600060208201905081810360008301526200066f81620005a5565b9050919050565b600060208201905081810360008301526200069181620005cc565b9050919050565b600082825260208201905092915050565b6000620006b682620006bd565b9050919050565b600073ffffffffffffffffffffffffffffffffffffffff82169050919050565b7f496e76616c69642076616c696461746f72206164647265737300000000000000600082015250565b7f496e76616c696420676f7665726e616e636520636f6e7472616374206164647260008201527f6573730000000000000000000000000000000000000000000000000000000000602082015250565b7f496e76616c69642078474153546f6b656e206164647265737300000000000000600082015250565b7f496e76616c696420756e7374616b654e46542061646472657373000000000000600082015250565b620007b281620006a9565b8114620007be57600080fd5b50565b61368e80620007d16000396000f3fe60806040526004361061016a5760003560e01c80639c81ff6b116100d1578063c5dd6fee1161008a578063e0a747fe11610064578063e0a747fe14610487578063ef91506c146104b2578063f2fde38b146104dd578063fcbe7f9e1461050657610171565b8063c5dd6fee14610429578063d0e30db014610452578063dc5e92551461045c57610171565b80639c81ff6b14610324578063a3a563de1461034f578063a70b9f0c1461038c578063abd5d44a146103b7578063b172b222146103f4578063bf5e18251461041f57610171565b8063715018a611610123578063715018a61461024a57806379b5786214610261578063817b1cd21461028c57806383d093ff146102b75780638456cb59146102e25780638da5cb5b146102f957610171565b806323095721146101765780633ccfd60b1461019f5780633f4ba83a146101b65780635c975abb146101cd578063635b2770146101f85780636faf60a01461022157610171565b3661017157005b600080fd5b34801561018257600080fd5b5061019d600480360381019061019891906120d2565b610531565b005b3480156101ab57600080fd5b506101b4610884565b005b3480156101c257600080fd5b506101cb6108db565b005b3480156101d957600080fd5b506101e26108ed565b6040516101ef9190612624565b60405180910390f35b34801561020457600080fd5b5061021f600480360381019061021a9190612080565b610904565b005b34801561022d57600080fd5b5061024860048036038101906102439190612080565b610b78565b005b34801561025657600080fd5b5061025f610d47565b005b34801561026d57600080fd5b50610276610d5b565b6040516102839190612b93565b60405180910390f35b34801561029857600080fd5b506102a1610d62565b6040516102ae9190612b93565b60405180910390f35b3480156102c357600080fd5b506102cc610d68565b6040516102d99190612675565b60405180910390f35b3480156102ee57600080fd5b506102f7610d8e565b005b34801561030557600080fd5b5061030e610da0565b60405161031b91906125e0565b60405180910390f35b34801561033057600080fd5b50610339610dc8565b6040516103469190612b93565b60405180910390f35b34801561035b57600080fd5b50610376600480360381019061037191906120d2565b610dce565b6040516103839190612b93565b60405180910390f35b34801561039857600080fd5b506103a1610f4d565b6040516103ae9190612b93565b60405180910390f35b3480156103c357600080fd5b506103de60048036038101906103d991906120d2565b610f54565b6040516103eb9190612b93565b60405180910390f35b34801561040057600080fd5b50610409611035565b604051610416919061263f565b60405180910390f35b61042761105b565b005b34801561043557600080fd5b50610450600480360381019061044b91906120d2565b6110f8565b005b61045a6113bd565b005b34801561046857600080fd5b506104716119c8565b60405161047e9190612b93565b60405180910390f35b34801561049357600080fd5b5061049c6119ce565b6040516104a9919061265a565b60405180910390f35b3480156104be57600080fd5b506104c76119f4565b6040516104d49190612b93565b60405180910390f35b3480156104e957600080fd5b5061050460048036038101906104ff9190612080565b6119fa565b005b34801561051257600080fd5b5061051b611a7e565b60405161052891906125e0565b60405180910390f35b610539611aa4565b610541611af4565b610549611b3e565b506000811161058d576040517f08c379a000000000000000000000000000000000000000000000000000000000815260040161058490612822565b60405180910390fd5b80600260009054906101000a900473ffffffffffffffffffffffffffffffffffffffff1673ffffffffffffffffffffffffffffffffffffffff166370a08231336040518263ffffffff1660e01b81526004016105e991906125e0565b60206040518083038186803b15801561060157600080fd5b505afa158015610615573d6000803e3d6000fd5b505050506040513d601f19601f8201168201806040525081019061063991906120fb565b101561067a576040517f08c379a00000000000000000000000000000000000000000000000000000000081526004016106719061298a565b60405180910390fd5b600061068582610dce565b90506005548111156106cc576040517f08c379a00000000000000000000000000000000000000000000000000000000081526004016106c390612746565b60405180910390fd5b600260009054906101000a900473ffffffffffffffffffffffffffffffffffffffff1673ffffffffffffffffffffffffffffffffffffffff16639dc29fac33846040518363ffffffff1660e01b81526004016107299291906125fb565b600060405180830381600087803b15801561074357600080fd5b505af1158015610757573d6000803e3d6000fd5b50505050806005600082825461076d9190612cf9565b925050819055506000600460009054906101000a900473ffffffffffffffffffffffffffffffffffffffff1673ffffffffffffffffffffffffffffffffffffffff166340c10f1933846040518363ffffffff1660e01b81526004016107d39291906125fb565b602060405180830381600087803b1580156107ed57600080fd5b505af1158015610801573d6000803e3d6000fd5b505050506040513d601f19601f8201168201806040525081019061082591906120fb565b90503373ffffffffffffffffffffffffffffffffffffffff167f57e41df54512c76148b5ba9b643d149752b0d35e493b969bd017d0a3fe5228cf848360405161086f929190612bae565b60405180910390a25050610881611d6b565b50565b61088c611d75565b60004790503373ffffffffffffffffffffffffffffffffffffffff166108fc829081150290604051600060405180830381858888f193505050501580156108d7573d6000803e3d6000fd5b5050565b6108e3611d75565b6108eb611df3565b565b6000600160009054906101000a900460ff16905090565b61090c611d75565b600073ffffffffffffffffffffffffffffffffffffffff168173ffffffffffffffffffffffffffffffffffffffff16141561097c576040517f08c379a0000000000000000000000000000000000000000000000000000000008152600401610973906127a6565b60405180910390fd5b600660009054906101000a900473ffffffffffffffffffffffffffffffffffffffff1673ffffffffffffffffffffffffffffffffffffffff168173ffffffffffffffffffffffffffffffffffffffff161415610a0d576040517f08c379a0000000000000000000000000000000000000000000000000000000008152600401610a0490612842565b60405180910390fd5b600073ffffffffffffffffffffffffffffffffffffffff16600660009054906101000a900473ffffffffffffffffffffffffffffffffffffffff1673ffffffffffffffffffffffffffffffffffffffff1614610af157600360009054906101000a900473ffffffffffffffffffffffffffffffffffffffff1673ffffffffffffffffffffffffffffffffffffffff16632efa6c1d826040518263ffffffff1660e01b8152600401610abe91906125e0565b600060405180830381600087803b158015610ad857600080fd5b505af1158015610aec573d6000803e3d6000fd5b505050505b80600660006101000a81548173ffffffffffffffffffffffffffffffffffffffff021916908373ffffffffffffffffffffffffffffffffffffffff1602179055508073ffffffffffffffffffffffffffffffffffffffff167fb3a3a56265020415cf2f7ff198e2052a6e1d43d7eb127450af725829e40e08c260405160405180910390a250565b610b80611d75565b600073ffffffffffffffffffffffffffffffffffffffff168173ffffffffffffffffffffffffffffffffffffffff161415610bf0576040517f08c379a0000000000000000000000000000000000000000000000000000000008152600401610be790612862565b60405180910390fd5b600360009054906101000a900473ffffffffffffffffffffffffffffffffffffffff1673ffffffffffffffffffffffffffffffffffffffff168173ffffffffffffffffffffffffffffffffffffffff161415610c81576040517f08c379a0000000000000000000000000000000000000000000000000000000008152600401610c789061292a565b60405180910390fd5b6000600360009054906101000a900473ffffffffffffffffffffffffffffffffffffffff16905081600360006101000a81548173ffffffffffffffffffffffffffffffffffffffff021916908373ffffffffffffffffffffffffffffffffffffffff1602179055508173ffffffffffffffffffffffffffffffffffffffff168173ffffffffffffffffffffffffffffffffffffffff167f2bb6fa423908148a692d1326edeb12cf0436abf468ce271a4be85c722b32774860405160405180910390a35050565b610d4f611d75565b610d596000611e56565b565b6212750081565b60055481565b600260009054906101000a900473ffffffffffffffffffffffffffffffffffffffff1681565b610d96611d75565b610d9e611f19565b565b600060018054906101000a900473ffffffffffffffffffffffffffffffffffffffff16905090565b60095481565b600080600260009054906101000a900473ffffffffffffffffffffffffffffffffffffffff1673ffffffffffffffffffffffffffffffffffffffff166318160ddd6040518163ffffffff1660e01b815260040160206040518083038186803b158015610e3957600080fd5b505afa158015610e4d573d6000803e3d6000fd5b505050506040513d601f19601f82011682018060405250810190610e7191906120fb565b1415610e805760009050610f48565b600260009054906101000a900473ffffffffffffffffffffffffffffffffffffffff1673ffffffffffffffffffffffffffffffffffffffff166318160ddd6040518163ffffffff1660e01b815260040160206040518083038186803b158015610ee857600080fd5b505afa158015610efc573d6000803e3d6000fd5b505050506040513d601f19601f82011682018060405250810190610f2091906120fb565b600954600554610f309190612c18565b83610f3b9190612c9f565b610f459190612c6e565b90505b919050565b62093a8081565b6000806005541415610f6857819050611030565b600954600554610f789190612c18565b600260009054906101000a900473ffffffffffffffffffffffffffffffffffffffff1673ffffffffffffffffffffffffffffffffffffffff166318160ddd6040518163ffffffff1660e01b815260040160206040518083038186803b158015610fe057600080fd5b505afa158015610ff4573d6000803e3d6000fd5b505050506040513d601f19601f8201168201806040525081019061101891906120fb565b836110239190612c9f565b61102d9190612c6e565b90505b919050565b600360009054906101000a900473ffffffffffffffffffffffffffffffffffffffff1681565b611063611d75565b600034116110a6576040517f08c379a000000000000000000000000000000000000000000000000000000000815260040161109d90612766565b60405180910390fd5b34600960008282546110b89190612c18565b925050819055507ff6ff2ad7fc16bda2a7d32462729431bce3ebe9b75cc7c9b35a0adfbf7e7bb9e6346040516110ee91906126f8565b60405180910390a1565b611100611aa4565b611108611af4565b611110611b3e565b506000600460009054906101000a900473ffffffffffffffffffffffffffffffffffffffff1673ffffffffffffffffffffffffffffffffffffffff1663ddb59e13836040518263ffffffff1660e01b815260040161116e9190612b93565b60606040518083038186803b15801561118657600080fd5b505afa15801561119a573d6000803e3d6000fd5b505050506040513d601f19601f820116820180604052508101906111be91906120a9565b90503373ffffffffffffffffffffffffffffffffffffffff16816040015173ffffffffffffffffffffffffffffffffffffffff1614611232576040517f08c379a000000000000000000000000000000000000000000000000000000000815260040161122990612882565b60405180910390fd5b6212750081602001516112459190612c18565b421015611287576040517f08c379a000000000000000000000000000000000000000000000000000000000815260040161127e9061296a565b60405180910390fd5b600460009054906101000a900473ffffffffffffffffffffffffffffffffffffffff1673ffffffffffffffffffffffffffffffffffffffff166342966c68836040518263ffffffff1660e01b81526004016112e29190612b93565b600060405180830381600087803b1580156112fc57600080fd5b505af1158015611310573d6000803e3d6000fd5b505050503373ffffffffffffffffffffffffffffffffffffffff166108fc82600001519081150290604051600060405180830381858888f1935050505015801561135e573d6000803e3d6000fd5b503373ffffffffffffffffffffffffffffffffffffffff167f7084f5476618d8e60b11ef0d7d3f06914655adb8793e28ff7f018d4c76d505d582600001516040516113a99190612b93565b60405180910390a2506113ba611d6b565b50565b6113c5611aa4565b6113cd611af4565b60013411611410576040517f08c379a0000000000000000000000000000000000000000000000000000000008152600401611407906129aa565b60405180910390fd5b7ff6ff2ad7fc16bda2a7d32462729431bce3ebe9b75cc7c9b35a0adfbf7e7bb9e63460405161143f91906127c6565b60405180910390a16000600854141561149757426008819055507ff6ff2ad7fc16bda2a7d32462729431bce3ebe9b75cc7c9b35a0adfbf7e7bb9e660085460405161148a9190612ac9565b60405180910390a1611521565b60006114a1611b3e565b905080156114e6577ff6ff2ad7fc16bda2a7d32462729431bce3ebe9b75cc7c9b35a0adfbf7e7bb9e660006040516114d99190612a4d565b60405180910390a161151f565b7ff6ff2ad7fc16bda2a7d32462729431bce3ebe9b75cc7c9b35a0adfbf7e7bb9e660006040516115169190612b45565b60405180910390a15b505b600061152c34610f54565b905034600560008282546115409190612c18565b92505081905550600260009054906101000a900473ffffffffffffffffffffffffffffffffffffffff1673ffffffffffffffffffffffffffffffffffffffff166340c10f1933836040518363ffffffff1660e01b81526004016115a49291906125fb565b600060405180830381600087803b1580156115be57600080fd5b505af19250505080156115cf575060015b611679576115db612ee4565b806308c379a0141561166d57506115f0613594565b806115fb575061166f565b7f4f2a6ffbe85105faebb67374ce84e47ca47b264070a4f8670a7fad135ef20f5f8160405161162a91906129ea565b60405180910390a16040517f08c379a0000000000000000000000000000000000000000000000000000000008152600401611664906129ca565b60405180910390fd5b505b3d6000803e3d6000fd5b7ff6ff2ad7fc16bda2a7d32462729431bce3ebe9b75cc7c9b35a0adfbf7e7bb9e6816040516116a89190612a9b565b60405180910390a13373ffffffffffffffffffffffffffffffffffffffff167f73a19dd210f1a7f902193214c0ee91dd35ee5b4d920cba8d519eca65a7b488ca34836040516116f8929190612bae565b60405180910390a2600073ffffffffffffffffffffffffffffffffffffffff16600660009054906101000a900473ffffffffffffffffffffffffffffffffffffffff1673ffffffffffffffffffffffffffffffffffffffff161461198457600360009054906101000a900473ffffffffffffffffffffffffffffffffffffffff1673ffffffffffffffffffffffffffffffffffffffff16636dd7d8ea34600660009054906101000a900473ffffffffffffffffffffffffffffffffffffffff166040518363ffffffff1660e01b81526004016117d491906125e0565b6000604051808303818588803b1580156117ed57600080fd5b505af1935050505080156117ff575060015b6119415761180b612ee4565b806308c379a0141561189d5750611820613594565b8061182b575061189f565b7f4f2a6ffbe85105faebb67374ce84e47ca47b264070a4f8670a7fad135ef20f5f8160405161185a91906128c2565b60405180910390a16040517f08c379a0000000000000000000000000000000000000000000000000000000008152600401611894906128a2565b60405180910390fd5b505b3d80600081146118cb576040519150601f19603f3d011682016040523d82523d6000602084013e6118d0565b606091505b507f4f2a6ffbe85105faebb67374ce84e47ca47b264070a4f8670a7fad135ef20f5f6040516118fe906128f7565b60405180910390a16040517f08c379a000000000000000000000000000000000000000000000000000000000815260040161193890612af7565b60405180910390fd5b426008819055507ff6ff2ad7fc16bda2a7d32462729431bce3ebe9b75cc7c9b35a0adfbf7e7bb9e63460405161197791906127f4565b60405180910390a16119bd565b7ff6ff2ad7fc16bda2a7d32462729431bce3ebe9b75cc7c9b35a0adfbf7e7bb9e660006040516119b49190612b17565b60405180910390a15b506119c6611d6b565b565b60085481565b600460009054906101000a900473ffffffffffffffffffffffffffffffffffffffff1681565b60075481565b611a02611d75565b600073ffffffffffffffffffffffffffffffffffffffff168173ffffffffffffffffffffffffffffffffffffffff161415611a72576040517f08c379a0000000000000000000000000000000000000000000000000000000008152600401611a6990612786565b60405180910390fd5b611a7b81611e56565b50565b600660009054906101000a900473ffffffffffffffffffffffffffffffffffffffff1681565b60026000541415611aea576040517f08c379a0000000000000000000000000000000000000000000000000000000008152600401611ae190612b73565b60405180910390fd5b6002600081905550565b611afc6108ed565b15611b3c576040517f08c379a0000000000000000000000000000000000000000000000000000000008152600401611b339061294a565b60405180910390fd5b565b600062093a80600854611b519190612c18565b421015611b98577ff6ff2ad7fc16bda2a7d32462729431bce3ebe9b75cc7c9b35a0adfbf7e7bb9e642604051611b879190612a1f565b60405180910390a160009050611d68565b6000479050600360009054906101000a900473ffffffffffffffffffffffffffffffffffffffff1673ffffffffffffffffffffffffffffffffffffffff1663b88a802f6040518163ffffffff1660e01b8152600401600060405180830381600087803b158015611c0757600080fd5b505af1925050508015611c18575060015b611cfa57611c24612ee4565b806308c379a01415611c865750611c39613594565b80611c445750611c88565b7f4f2a6ffbe85105faebb67374ce84e47ca47b264070a4f8670a7fad135ef20f5f81604051611c739190612690565b60405180910390a1600092505050611d68565b505b3d8060008114611cb4576040519150601f19603f3d011682016040523d82523d6000602084013e611cb9565b606091505b507f4f2a6ffbe85105faebb67374ce84e47ca47b264070a4f8670a7fad135ef20f5f604051611ce7906126c5565b60405180910390a1600092505050611d68565b60008147611d089190612cf9565b90508060096000828254611d1c9190612c18565b92505081905550426007819055507f302ece888b23f17e9addd0ad302c9b0d6619a5c38b718deb019638e29355c0fb81604051611d599190612b93565b60405180910390a16001925050505b90565b6001600081905550565b611d7d611f7b565b73ffffffffffffffffffffffffffffffffffffffff16611d9b610da0565b73ffffffffffffffffffffffffffffffffffffffff1614611df1576040517f08c379a0000000000000000000000000000000000000000000000000000000008152600401611de890612a7b565b60405180910390fd5b565b611dfb611f83565b6000600160006101000a81548160ff0219169083151502179055507f5db9ee0a495bf2e6ff9c91a7834c1ba4fdd244a5e8aa4e537bd38aeae4b073aa611e3f611f7b565b604051611e4c91906125e0565b60405180910390a1565b600060018054906101000a900473ffffffffffffffffffffffffffffffffffffffff169050816001806101000a81548173ffffffffffffffffffffffffffffffffffffffff021916908373ffffffffffffffffffffffffffffffffffffffff1602179055508173ffffffffffffffffffffffffffffffffffffffff168173ffffffffffffffffffffffffffffffffffffffff167f8be0079c531659141344cd1fd0a4f28419497f9722a3daafe3b4186f6b6457e060405160405180910390a35050565b611f21611af4565b60018060006101000a81548160ff0219169083151502179055507f62e78cea01bee320cd4e420270b5ea74000d11b0c9f74754ebdbfc544b05a258611f64611f7b565b604051611f7191906125e0565b60405180910390a1565b600033905090565b611f8b6108ed565b611fca576040517f08c379a0000000000000000000000000000000000000000000000000000000008152600401611fc190612726565b60405180910390fd5b565b600081359050611fdb8161362a565b92915050565b600081519050611ff08161362a565b92915050565b60006060828403121561200857600080fd5b6120126060612bd7565b905060006120228482850161206b565b60008301525060206120368482850161206b565b602083015250604061204a84828501611fe1565b60408301525092915050565b60008135905061206581613641565b92915050565b60008151905061207a81613641565b92915050565b60006020828403121561209257600080fd5b60006120a084828501611fcc565b91505092915050565b6000606082840312156120bb57600080fd5b60006120c984828501611ff6565b91505092915050565b6000602082840312156120e457600080fd5b60006120f284828501612056565b91505092915050565b60006020828403121561210d57600080fd5b600061211b8482850161206b565b91505092915050565b61212d81612d2d565b82525050565b61213c81612d3f565b82525050565b61214b81612d75565b82525050565b61215a81612d99565b82525050565b61216981612dbd565b82525050565b61217881612de1565b82525050565b600061218982612bfc565b6121938185612c07565b93506121a3818560208601612df3565b6121ac81612f06565b840191505092915050565b60006121c4601383612c07565b91506121cf82612f24565b602082019050919050565b60006121e7601d83612c07565b91506121f282612f4d565b602082019050919050565b600061220a601483612c07565b915061221582612f76565b602082019050919050565b600061222d601a83612c07565b915061223882612f9f565b602082019050919050565b6000612250602b83612c07565b915061225b82612fc8565b604082019050919050565b6000612273602683612c07565b915061227e82613017565b604082019050919050565b6000612296601983612c07565b91506122a182613066565b602082019050919050565b60006122b9600f83612c07565b91506122c48261308f565b602082019050919050565b60006122dc600f83612c07565b91506122e7826130b8565b602082019050919050565b60006122ff602583612c07565b915061230a826130e1565b604082019050919050565b6000612322602c83612c07565b915061232d82613130565b604082019050919050565b6000612345602e83612c07565b91506123508261317f565b604082019050919050565b6000612368602583612c07565b9150612373826131ce565b604082019050919050565b600061238b600d83612c07565b91506123968261321d565b602082019050919050565b60006123ae602a83612c07565b91506123b982613246565b604082019050919050565b60006123d1600f83612c07565b91506123dc82613295565b602082019050919050565b60006123f4601083612c07565b91506123ff826132be565b602082019050919050565b6000612417601a83612c07565b9150612422826132e7565b602082019050919050565b600061243a601983612c07565b915061244582613310565b602082019050919050565b600061245d602583612c07565b915061246882613339565b604082019050919050565b6000612480601383612c07565b915061248b82613388565b602082019050919050565b60006124a3601983612c07565b91506124ae826133b1565b602082019050919050565b60006124c6602083612c07565b91506124d1826133da565b602082019050919050565b60006124e9602083612c07565b91506124f482613403565b602082019050919050565b600061250c601883612c07565b91506125178261342c565b602082019050919050565b600061252f602883612c07565b915061253a82613455565b604082019050919050565b6000612552602483612c07565b915061255d826134a4565b604082019050919050565b6000612575601083612c07565b9150612580826134f3565b602082019050919050565b6000612598602383612c07565b91506125a38261351c565b604082019050919050565b60006125bb601f83612c07565b91506125c68261356b565b602082019050919050565b6125da81612d6b565b82525050565b60006020820190506125f56000830184612124565b92915050565b60006040820190506126106000830185612124565b61261d60208301846125d1565b9392505050565b60006020820190506126396000830184612133565b92915050565b60006020820190506126546000830184612142565b92915050565b600060208201905061266f6000830184612151565b92915050565b600060208201905061268a6000830184612160565b92915050565b600060408201905081810360008301526126a9816121b7565b905081810360208301526126bd818461217e565b905092915050565b600060408201905081810360008301526126de816121b7565b905081810360208301526126f1816123c4565b9050919050565b60006040820190508181036000830152612711816121da565b905061272060208301846125d1565b92915050565b6000602082019050818103600083015261273f816121fd565b9050919050565b6000602082019050818103600083015261275f81612220565b9050919050565b6000602082019050818103600083015261277f81612243565b9050919050565b6000602082019050818103600083015261279f81612266565b9050919050565b600060208201905081810360008301526127bf81612289565b9050919050565b600060408201905081810360008301526127df816122ac565b90506127ee60208301846125d1565b92915050565b6000604082019050818103600083015261280d816122cf565b905061281c60208301846125d1565b92915050565b6000602082019050818103600083015261283b816122f2565b9050919050565b6000602082019050818103600083015261285b81612315565b9050919050565b6000602082019050818103600083015261287b81612338565b9050919050565b6000602082019050818103600083015261289b8161235b565b9050919050565b600060208201905081810360008301526128bb8161237e565b9050919050565b600060408201905081810360008301526128db8161237e565b905081810360208301526128ef818461217e565b905092915050565b600060408201905081810360008301526129108161237e565b90508181036020830152612923816123c4565b9050919050565b60006020820190508181036000830152612943816123a1565b9050919050565b60006020820190508181036000830152612963816123e7565b9050919050565b600060208201905081810360008301526129838161240a565b9050919050565b600060208201905081810360008301526129a38161242d565b9050919050565b600060208201905081810360008301526129c381612450565b9050919050565b600060208201905081810360008301526129e381612473565b9050919050565b60006040820190508181036000830152612a0381612473565b90508181036020830152612a17818461217e565b905092915050565b60006040820190508181036000830152612a3881612496565b9050612a4760208301846125d1565b92915050565b60006040820190508181036000830152612a66816124b9565b9050612a75602083018461216f565b92915050565b60006020820190508181036000830152612a94816124dc565b9050919050565b60006040820190508181036000830152612ab4816124ff565b9050612ac360208301846125d1565b92915050565b60006040820190508181036000830152612ae281612522565b9050612af160208301846125d1565b92915050565b60006020820190508181036000830152612b1081612545565b9050919050565b60006040820190508181036000830152612b3081612568565b9050612b3f602083018461216f565b92915050565b60006040820190508181036000830152612b5e8161258b565b9050612b6d602083018461216f565b92915050565b60006020820190508181036000830152612b8c816125ae565b9050919050565b6000602082019050612ba860008301846125d1565b92915050565b6000604082019050612bc360008301856125d1565b612bd060208301846125d1565b9392505050565b6000612be1612bf2565b9050612bed8282612e26565b919050565b6000604051905090565b600081519050919050565b600082825260208201905092915050565b6000612c2382612d6b565b9150612c2e83612d6b565b9250827fffffffffffffffffffffffffffffffffffffffffffffffffffffffffffffffff03821115612c6357612c62612e57565b5b828201905092915050565b6000612c7982612d6b565b9150612c8483612d6b565b925082612c9457612c93612e86565b5b828204905092915050565b6000612caa82612d6b565b9150612cb583612d6b565b9250817fffffffffffffffffffffffffffffffffffffffffffffffffffffffffffffffff0483118215151615612cee57612ced612e57565b5b828202905092915050565b6000612d0482612d6b565b9150612d0f83612d6b565b925082821015612d2257612d21612e57565b5b828203905092915050565b6000612d3882612d4b565b9050919050565b60008115159050919050565b600073ffffffffffffffffffffffffffffffffffffffff82169050919050565b6000819050919050565b6000612d8082612d87565b9050919050565b6000612d9282612d4b565b9050919050565b6000612da482612dab565b9050919050565b6000612db682612d4b565b9050919050565b6000612dc882612dcf565b9050919050565b6000612dda82612d4b565b9050919050565b6000612dec82612d6b565b9050919050565b60005b83811015612e11578082015181840152602081019050612df6565b83811115612e20576000848401525b50505050565b612e2f82612f06565b810181811067ffffffffffffffff82111715612e4e57612e4d612eb5565b5b80604052505050565b7f4e487b7100000000000000000000000000000000000000000000000000000000600052601160045260246000fd5b7f4e487b7100000000000000000000000000000000000000000000000000000000600052601260045260246000fd5b7f4e487b7100000000000000000000000000000000000000000000000000000000600052604160045260246000fd5b600060033d1115612f035760046000803e612f00600051612f17565b90505b90565b6000601f19601f8301169050919050565b60008160e01c9050919050565b7f436c61696d20726577617264206661696c656400000000000000000000000000600082015250565b7f416363756d756c61746564207265776172647320696e63726561736564000000600082015250565b7f5061757361626c653a206e6f7420706175736564000000000000000000000000600082015250565b7f496e73756666696369656e74207374616b656420616d6f756e74000000000000600082015250565b7f4d7573742073656e642045544820746f2061646420746f20616363756d756c6160008201527f7465642072657761726473000000000000000000000000000000000000000000602082015250565b7f4f776e61626c653a206e6577206f776e657220697320746865207a65726f206160008201527f6464726573730000000000000000000000000000000000000000000000000000602082015250565b7f496e76616c69642076616c696461746f72206164647265737300000000000000600082015250565b7f4465706f73697420737461727465640000000000000000000000000000000000600082015250565b7f566f7465207375636365737366756c0000000000000000000000000000000000600082015250565b7f556e7374616b6520616d6f756e74206d7573742062652067726561746572207460008201527f68616e2030000000000000000000000000000000000000000000000000000000602082015250565b7f4e65772076616c696461746f72206d75737420626520646966666572656e742060008201527f66726f6d2063757272656e740000000000000000000000000000000000000000602082015250565b7f4e657720676f7665726e616e636520636f6e747261637420616464726573732060008201527f63616e6e6f74206265207a65726f000000000000000000000000000000000000602082015250565b7f4e6f7420746865206f776e6572206f66207468697320756e7374616b6520726560008201527f7175657374000000000000000000000000000000000000000000000000000000602082015250565b7f566f74696e67206661696c656400000000000000000000000000000000000000600082015250565b7f4e65772061646472657373206d75737420626520646966666572656e7420667260008201527f6f6d2063757272656e7400000000000000000000000000000000000000000000602082015250565b7f4c6f77206c6576656c206572726f720000000000000000000000000000000000600082015250565b7f5061757361626c653a2070617573656400000000000000000000000000000000600082015250565b7f556e7374616b6520706572696f64206e6f7420656c6170736564000000000000600082015250565b7f496e73756666696369656e7420784741532062616c616e636500000000000000600082015250565b7f4465706f73697420616d6f756e74206d7573742062652067726561746572207460008201527f68616e2031000000000000000000000000000000000000000000000000000000602082015250565b7f78474153206d696e74696e67206661696c656400000000000000000000000000600082015250565b7f52657761726473206e6f742079657420636c61696d61626c6500000000000000600082015250565b7f526577617264732068617276657374656420647572696e67206465706f736974600082015250565b7f4f776e61626c653a2063616c6c6572206973206e6f7420746865206f776e6572600082015250565b7f78474153206d696e746564207375636365737366756c6c790000000000000000600082015250565b7f4669727374206465706f7369742c2073657474696e67206c617374566f74655460008201527f696d657374616d70000000000000000000000000000000000000000000000000602082015250565b7f566f74696e67206661696c65642064756520746f206c6f77206c6576656c206560008201527f72726f7200000000000000000000000000000000000000000000000000000000602082015250565b7f4e6f2076616c696461746f722073657400000000000000000000000000000000600082015250565b7f4e6f20726577617264732068617276657374656420647572696e67206465706f60008201527f7369740000000000000000000000000000000000000000000000000000000000602082015250565b7f5265656e7472616e637947756172643a207265656e7472616e742063616c6c00600082015250565b600060443d10156135a457613627565b6135ac612bf2565b60043d036004823e80513d602482011167ffffffffffffffff821117156135d4575050613627565b808201805167ffffffffffffffff8111156135f25750505050613627565b80602083010160043d03850181111561360f575050505050613627565b61361e82602001850186612e26565b82955050505050505b90565b61363381612d2d565b811461363e57600080fd5b50565b61364a81612d6b565b811461365557600080fd5b5056fea264697066735822122040bdb560ff3108e335014332fb30832fc27cb2a408638550b9edc34deb81b22e64736f6c63430008010033",
  "linkReferences": {},
  "deployedLinkReferences": {}
}