{
  "_format": "hh-sol-artifact-1",
  "contractName": "UnstakeNFT",
  "sourceName": "contracts/UnstakeNFT.sol",
  "abi": [
    {
      "inputs": [],
      "stateMutability": "nonpayable",
      "type": "constructor"
    },
    {
      "anonymous": false,
      "inputs": [
        {
          "indexed": true,
          "internalType": "address",
          "name": "owner",
          "type": "address"
        },
        {
          "indexed": true,
          "internalType": "address",
          "name": "approved",
          "type": "address"
        },
        {
          "indexed": true,
          "internalType": "uint256",
          "name": "tokenId",
          "type": "uint256"
        }
      ],
      "name": "Approval",
      "type": "event"
    },
    {
      "anonymous": false,
      "inputs": [
        {
          "indexed": true,
          "internalType": "address",
          "name": "owner",
          "type": "address"
        },
        {
          "indexed": true,
          "internalType": "address",
          "name": "operator",
          "type": "address"
        },
        {
          "indexed": false,
          "internalType": "bool",
          "name": "approved",
          "type": "bool"
        }
      ],
      "name": "ApprovalForAll",
      "type": "event"
    },
    {
      "anonymous": false,
      "inputs": [
        {
          "indexed": true,
          "internalType": "address",
          "name": "previousOperator",
          "type": "address"
        },
        {
          "indexed": true,
          "internalType": "address",
          "name": "newOperator",
          "type": "address"
        }
      ],
      "name": "OperatorTransferred",
      "type": "event"
    },
    {
      "anonymous": false,
      "inputs": [
        {
          "indexed": true,
          "internalType": "address",
          "name": "previousOwner",
          "type": "address"
        },
        {
          "indexed": true,
          "internalType": "address",
          "name": "newOwner",
          "type": "address"
        }
      ],
      "name": "OwnershipTransferred",
      "type": "event"
    },
    {
      "anonymous": false,
      "inputs": [
        {
          "indexed": true,
          "internalType": "address",
          "name": "from",
          "type": "address"
        },
        {
          "indexed": true,
          "internalType": "address",
          "name": "to",
          "type": "address"
        },
        {
          "indexed": true,
          "internalType": "uint256",
          "name": "tokenId",
          "type": "uint256"
        }
      ],
      "name": "Transfer",
      "type": "event"
    },
    {
      "inputs": [
        {
          "internalType": "address",
          "name": "to",
          "type": "address"
        },
        {
          "internalType": "uint256",
          "name": "tokenId",
          "type": "uint256"
        }
      ],
      "name": "approve",
      "outputs": [],
      "stateMutability": "nonpayable",
      "type": "function"
    },
    {
      "inputs": [
        {
          "internalType": "address",
          "name": "owner",
          "type": "address"
        }
      ],
      "name": "balanceOf",
      "outputs": [
        {
          "internalType": "uint256",
          "name": "",
          "type": "uint256"
        }
      ],
      "stateMutability": "view",
      "type": "function"
    },
    {
      "inputs": [
        {
          "internalType": "uint256",
          "name": "tokenId",
          "type": "uint256"
        }
      ],
      "name": "burn",
      "outputs": [],
      "stateMutability": "nonpayable",
      "type": "function"
    },
    {
      "inputs": [
        {
          "internalType": "uint256",
          "name": "tokenId",
          "type": "uint256"
        }
      ],
      "name": "getApproved",
      "outputs": [
        {
          "internalType": "address",
          "name": "",
          "type": "address"
        }
      ],
      "stateMutability": "view",
      "type": "function"
    },
    {
      "inputs": [
        {
          "internalType": "uint256",
          "name": "tokenId",
          "type": "uint256"
        }
      ],
      "name": "getUnstakeRequest",
      "outputs": [
        {
          "components": [
            {
              "internalType": "uint256",
              "name": "amount",
              "type": "uint256"
            },
            {
              "internalType": "uint256",
              "name": "mintTime",
              "type": "uint256"
            },
            {
              "internalType": "address",
              "name": "user",
              "type": "address"
            }
          ],
          "internalType": "struct UnstakeNFT.UnstakeRequest",
          "name": "",
          "type": "tuple"
        }
      ],
      "stateMutability": "view",
      "type": "function"
    },
    {
      "inputs": [
        {
          "internalType": "address",
          "name": "owner",
          "type": "address"
        },
        {
          "internalType": "address",
          "name": "operator",
          "type": "address"
        }
      ],
      "name": "isApprovedForAll",
      "outputs": [
        {
          "internalType": "bool",
          "name": "",
          "type": "bool"
        }
      ],
      "stateMutability": "view",
      "type": "function"
    },
    {
      "inputs": [
        {
          "internalType": "address",
          "name": "user",
          "type": "address"
        },
        {
          "internalType": "uint256",
          "name": "amount",
          "type": "uint256"
        }
      ],
      "name": "mint",
      "outputs": [
        {
          "internalType": "uint256",
          "name": "",
          "type": "uint256"
        }
      ],
      "stateMutability": "nonpayable",
      "type": "function"
    },
    {
      "inputs": [],
      "name": "name",
      "outputs": [
        {
          "internalType": "string",
          "name": "",
          "type": "string"
        }
      ],
      "stateMutability": "view",
      "type": "function"
    },
    {
      "inputs": [],
      "name": "operator",
      "outputs": [
        {
          "internalType": "address",
          "name": "",
          "type": "address"
        }
      ],
      "stateMutability": "view",
      "type": "function"
    },
    {
      "inputs": [],
      "name": "owner",
      "outputs": [
        {
          "internalType": "address",
          "name": "",
          "type": "address"
        }
      ],
      "stateMutability": "view",
      "type": "function"
    },
    {
      "inputs": [
        {
          "internalType": "uint256",
          "name": "tokenId",
          "type": "uint256"
        }
      ],
      "name": "ownerOf",
      "outputs": [
        {
          "internalType": "address",
          "name": "",
          "type": "address"
        }
      ],
      "stateMutability": "view",
      "type": "function"
    },
    {
      "inputs": [],
      "name": "renounceOwnership",
      "outputs": [],
      "stateMutability": "nonpayable",
      "type": "function"
    },
    {
      "inputs": [
        {
          "internalType": "address",
          "name": "from",
          "type": "address"
        },
        {
          "internalType": "address",
          "name": "to",
          "type": "address"
        },
        {
          "internalType": "uint256",
          "name": "tokenId",
          "type": "uint256"
        }
      ],
      "name": "safeTransferFrom",
      "outputs": [],
      "stateMutability": "nonpayable",
      "type": "function"
    },
    {
      "inputs": [
        {
          "internalType": "address",
          "name": "from",
          "type": "address"
        },
        {
          "internalType": "address",
          "name": "to",
          "type": "address"
        },
        {
          "internalType": "uint256",
          "name": "tokenId",
          "type": "uint256"
        },
        {
          "internalType": "bytes",
          "name": "data",
          "type": "bytes"
        }
      ],
      "name": "safeTransferFrom",
      "outputs": [],
      "stateMutability": "nonpayable",
      "type": "function"
    },
    {
      "inputs": [
        {
          "internalType": "address",
          "name": "operator",
          "type": "address"
        },
        {
          "internalType": "bool",
          "name": "approved",
          "type": "bool"
        }
      ],
      "name": "setApprovalForAll",
      "outputs": [],
      "stateMutability": "nonpayable",
      "type": "function"
    },
    {
      "inputs": [
        {
          "internalType": "bytes4",
          "name": "interfaceId",
          "type": "bytes4"
        }
      ],
      "name": "supportsInterface",
      "outputs": [
        {
          "internalType": "bool",
          "name": "",
          "type": "bool"
        }
      ],
      "stateMutability": "view",
      "type": "function"
    },
    {
      "inputs": [],
      "name": "symbol",
      "outputs": [
        {
          "internalType": "string",
          "name": "",
          "type": "string"
        }
      ],
      "stateMutability": "view",
      "type": "function"
    },
    {
      "inputs": [
        {
          "internalType": "uint256",
          "name": "tokenId",
          "type": "uint256"
        }
      ],
      "name": "tokenURI",
      "outputs": [
        {
          "internalType": "string",
          "name": "",
          "type": "string"
        }
      ],
      "stateMutability": "view",
      "type": "function"
    },
    {
      "inputs": [
        {
          "internalType": "address",
          "name": "from",
          "type": "address"
        },
        {
          "internalType": "address",
          "name": "to",
          "type": "address"
        },
        {
          "internalType": "uint256",
          "name": "tokenId",
          "type": "uint256"
        }
      ],
      "name": "transferFrom",
      "outputs": [],
      "stateMutability": "nonpayable",
      "type": "function"
    },
    {
      "inputs": [
        {
          "internalType": "address",
          "name": "newOperator",
          "type": "address"
        }
      ],
      "name": "transferOperator",
      "outputs": [],
      "stateMutability": "nonpayable",
      "type": "function"
    },
    {
      "inputs": [
        {
          "internalType": "address",
          "name": "newOwner",
          "type": "address"
        }
      ],
      "name": "transferOwnership",
      "outputs": [],
      "stateMutability": "nonpayable",
      "type": "function"
    },
    {
      "inputs": [
        {
          "internalType": "uint256",
          "name": "",
          "type": "uint256"
        }
      ],
      "name": "unstakeRequests",
      "outputs": [
        {
          "internalType": "uint256",
          "name": "amount",
          "type": "uint256"
        },
        {
          "internalType": "uint256",
          "name": "mintTime",
          "type": "uint256"
        },
        {
          "internalType": "address",
          "name": "user",
          "type": "address"
        }
      ],
      "stateMutability": "view",
      "type": "function"
    }
  ],
  "bytecode": "0x60806040523480156200001157600080fd5b506040518060400160405280600a81526020017f556e7374616b654e4654000000000000000000000000000000000000000000008152506040518060400160405280600481526020017f554e465400000000000000000000000000000000000000000000000000000000815250816000908051906020019062000096929190620001f6565b508060019080519060200190620000af929190620001f6565b505050620000d2620000c66200012860201b60201c565b6200013060201b60201c565b620000e26200012860201b60201c565b600860006101000a81548173ffffffffffffffffffffffffffffffffffffffff021916908373ffffffffffffffffffffffffffffffffffffffff1602179055506200030b565b600033905090565b6000600660009054906101000a900473ffffffffffffffffffffffffffffffffffffffff16905081600660006101000a81548173ffffffffffffffffffffffffffffffffffffffff021916908373ffffffffffffffffffffffffffffffffffffffff1602179055508173ffffffffffffffffffffffffffffffffffffffff168173ffffffffffffffffffffffffffffffffffffffff167f8be0079c531659141344cd1fd0a4f28419497f9722a3daafe3b4186f6b6457e060405160405180910390a35050565b8280546200020490620002a6565b90600052602060002090601f01602090048101928262000228576000855562000274565b82601f106200024357805160ff191683800117855562000274565b8280016001018555821562000274579182015b828111156200027357825182559160200191906001019062000256565b5b50905062000283919062000287565b5090565b5b80821115620002a257600081600090555060010162000288565b5090565b60006002820490506001821680620002bf57607f821691505b60208210811415620002d657620002d5620002dc565b5b50919050565b7f4e487b7100000000000000000000000000000000000000000000000000000000600052602260045260246000fd5b613231806200031b6000396000f3fe608060405234801561001057600080fd5b50600436106101425760003560e01c806370a08231116100b8578063b88d4fde1161007c578063b88d4fde14610361578063c87b56dd1461037d578063ddb59e13146103ad578063e985e9c5146103dd578063f2fde38b1461040d578063f87975af1461042957610142565b806370a08231146102cf578063715018a6146102ff5780638da5cb5b1461030957806395d89b4114610327578063a22cb4651461034557610142565b806329605e771161010a57806329605e77146101fd57806340c10f191461021957806342842e0e1461024957806342966c6814610265578063570ca735146102815780636352211e1461029f57610142565b806301ffc9a71461014757806306fdde0314610177578063081812fc14610195578063095ea7b3146101c557806323b872dd146101e1575b600080fd5b610161600480360381019061015c91906124ce565b61045b565b60405161016e9190612911565b60405180910390f35b61017f61053d565b60405161018c919061292c565b60405180910390f35b6101af60048036038101906101aa9190612520565b6105cf565b6040516101bc91906128aa565b60405180910390f35b6101df60048036038101906101da9190612492565b610615565b005b6101fb60048036038101906101f6919061238c565b61072d565b005b61021760048036038101906102129190612327565b61078d565b005b610233600480360381019061022e9190612492565b6108c5565b6040516102409190612b49565b60405180910390f35b610263600480360381019061025e919061238c565b610a2c565b005b61027f600480360381019061027a9190612520565b610a4c565b005b610289610b3c565b60405161029691906128aa565b60405180910390f35b6102b960048036038101906102b49190612520565b610b66565b6040516102c691906128aa565b60405180910390f35b6102e960048036038101906102e49190612327565b610bed565b6040516102f69190612b49565b60405180910390f35b610307610ca5565b005b610311610cb9565b60405161031e91906128aa565b60405180910390f35b61032f610ce3565b60405161033c919061292c565b60405180910390f35b61035f600480360381019061035a9190612456565b610d75565b005b61037b600480360381019061037691906123db565b610d8b565b005b61039760048036038101906103929190612520565b610ded565b6040516103a4919061292c565b60405180910390f35b6103c760048036038101906103c29190612520565b610e55565b6040516103d49190612b2e565b60405180910390f35b6103f760048036038101906103f29190612350565b610eec565b6040516104049190612911565b60405180910390f35b61042760048036038101906104229190612327565b610f80565b005b610443600480360381019061043e9190612520565b611004565b60405161045293929190612b64565b60405180910390f35b60007f80ac58cd000000000000000000000000000000000000000000000000000000007bffffffffffffffffffffffffffffffffffffffffffffffffffffffff1916827bffffffffffffffffffffffffffffffffffffffffffffffffffffffff1916148061052657507f5b5e139f000000000000000000000000000000000000000000000000000000007bffffffffffffffffffffffffffffffffffffffffffffffffffffffff1916827bffffffffffffffffffffffffffffffffffffffffffffffffffffffff1916145b8061053657506105358261104e565b5b9050919050565b60606000805461054c90612cea565b80601f016020809104026020016040519081016040528092919081815260200182805461057890612cea565b80156105c55780601f1061059a576101008083540402835291602001916105c5565b820191906000526020600020905b8154815290600101906020018083116105a857829003601f168201915b5050505050905090565b60006105da826110b8565b6004600083815260200190815260200160002060009054906101000a900473ffffffffffffffffffffffffffffffffffffffff169050919050565b600061062082610b66565b90508073ffffffffffffffffffffffffffffffffffffffff168373ffffffffffffffffffffffffffffffffffffffff161415610691576040517f08c379a000000000000000000000000000000000000000000000000000000000815260040161068890612ace565b60405180910390fd5b8073ffffffffffffffffffffffffffffffffffffffff166106b0611103565b73ffffffffffffffffffffffffffffffffffffffff1614806106df57506106de816106d9611103565b610eec565b5b61071e576040517f08c379a000000000000000000000000000000000000000000000000000000000815260040161071590612aee565b60405180910390fd5b610728838361110b565b505050565b61073e610738611103565b826111c4565b61077d576040517f08c379a00000000000000000000000000000000000000000000000000000000081526004016107749061294e565b60405180910390fd5b610788838383611259565b505050565b610795611553565b600073ffffffffffffffffffffffffffffffffffffffff168173ffffffffffffffffffffffffffffffffffffffff161415610805576040517f08c379a00000000000000000000000000000000000000000000000000000000081526004016107fc90612a2e565b60405180910390fd5b8073ffffffffffffffffffffffffffffffffffffffff16600860009054906101000a900473ffffffffffffffffffffffffffffffffffffffff1673ffffffffffffffffffffffffffffffffffffffff167f74da04524d50c64947f5dd5381ef1a4dca5cba8ed1d816243f9e48aa0b5617ed60405160405180910390a380600860006101000a81548173ffffffffffffffffffffffffffffffffffffffff021916908373ffffffffffffffffffffffffffffffffffffffff16021790555050565b6000600860009054906101000a900473ffffffffffffffffffffffffffffffffffffffff1673ffffffffffffffffffffffffffffffffffffffff16610908611103565b73ffffffffffffffffffffffffffffffffffffffff161461095e576040517f08c379a000000000000000000000000000000000000000000000000000000000815260040161095590612b0e565b60405180910390fd5b61096860076115d1565b600061097460076115e7565b905061098084826115f5565b60405180606001604052808481526020014281526020018573ffffffffffffffffffffffffffffffffffffffff1681525060096000838152602001908152602001600020600082015181600001556020820151816001015560408201518160020160006101000a81548173ffffffffffffffffffffffffffffffffffffffff021916908373ffffffffffffffffffffffffffffffffffffffff1602179055509050508091505092915050565b610a4783838360405180602001604052806000815250610d8b565b505050565b600860009054906101000a900473ffffffffffffffffffffffffffffffffffffffff1673ffffffffffffffffffffffffffffffffffffffff16610a8d611103565b73ffffffffffffffffffffffffffffffffffffffff1614610ae3576040517f08c379a0000000000000000000000000000000000000000000000000000000008152600401610ada90612b0e565b60405180910390fd5b610aec81611613565b6009600082815260200190815260200160002060008082016000905560018201600090556002820160006101000a81549073ffffffffffffffffffffffffffffffffffffffff0219169055505050565b6000600860009054906101000a900473ffffffffffffffffffffffffffffffffffffffff16905090565b600080610b7283611761565b9050600073ffffffffffffffffffffffffffffffffffffffff168173ffffffffffffffffffffffffffffffffffffffff161415610be4576040517f08c379a0000000000000000000000000000000000000000000000000000000008152600401610bdb90612aae565b60405180910390fd5b80915050919050565b60008073ffffffffffffffffffffffffffffffffffffffff168273ffffffffffffffffffffffffffffffffffffffff161415610c5e576040517f08c379a0000000000000000000000000000000000000000000000000000000008152600401610c5590612a4e565b60405180910390fd5b600360008373ffffffffffffffffffffffffffffffffffffffff1673ffffffffffffffffffffffffffffffffffffffff168152602001908152602001600020549050919050565b610cad611553565b610cb7600061179e565b565b6000600660009054906101000a900473ffffffffffffffffffffffffffffffffffffffff16905090565b606060018054610cf290612cea565b80601f0160208091040260200160405190810160405280929190818152602001828054610d1e90612cea565b8015610d6b5780601f10610d4057610100808354040283529160200191610d6b565b820191906000526020600020905b815481529060010190602001808311610d4e57829003601f168201915b5050505050905090565b610d87610d80611103565b8383611864565b5050565b610d9c610d96611103565b836111c4565b610ddb576040517f08c379a0000000000000000000000000000000000000000000000000000000008152600401610dd29061294e565b60405180910390fd5b610de7848484846119d1565b50505050565b6060610df8826110b8565b6000610e02611a2d565b90506000815111610e225760405180602001604052806000815250610e4d565b80610e2c84611a44565b604051602001610e3d929190612886565b6040516020818303038152906040525b915050919050565b610e5d61221f565b6009600083815260200190815260200160002060405180606001604052908160008201548152602001600182015481526020016002820160009054906101000a900473ffffffffffffffffffffffffffffffffffffffff1673ffffffffffffffffffffffffffffffffffffffff1673ffffffffffffffffffffffffffffffffffffffff16815250509050919050565b6000600560008473ffffffffffffffffffffffffffffffffffffffff1673ffffffffffffffffffffffffffffffffffffffff16815260200190815260200160002060008373ffffffffffffffffffffffffffffffffffffffff1673ffffffffffffffffffffffffffffffffffffffff16815260200190815260200160002060009054906101000a900460ff16905092915050565b610f88611553565b600073ffffffffffffffffffffffffffffffffffffffff168173ffffffffffffffffffffffffffffffffffffffff161415610ff8576040517f08c379a0000000000000000000000000000000000000000000000000000000008152600401610fef9061298e565b60405180910390fd5b6110018161179e565b50565b60096020528060005260406000206000915090508060000154908060010154908060020160009054906101000a900473ffffffffffffffffffffffffffffffffffffffff16905083565b60007f01ffc9a7000000000000000000000000000000000000000000000000000000007bffffffffffffffffffffffffffffffffffffffffffffffffffffffff1916827bffffffffffffffffffffffffffffffffffffffffffffffffffffffff1916149050919050565b6110c181611b68565b611100576040517f08c379a00000000000000000000000000000000000000000000000000000000081526004016110f790612aae565b60405180910390fd5b50565b600033905090565b816004600083815260200190815260200160002060006101000a81548173ffffffffffffffffffffffffffffffffffffffff021916908373ffffffffffffffffffffffffffffffffffffffff160217905550808273ffffffffffffffffffffffffffffffffffffffff1661117e83610b66565b73ffffffffffffffffffffffffffffffffffffffff167f8c5be1e5ebec7d5bd14f71427d1e84f3dd0314c0f7b2291e5b200ac8c7c3b92560405160405180910390a45050565b6000806111d083610b66565b90508073ffffffffffffffffffffffffffffffffffffffff168473ffffffffffffffffffffffffffffffffffffffff16148061121257506112118185610eec565b5b8061125057508373ffffffffffffffffffffffffffffffffffffffff16611238846105cf565b73ffffffffffffffffffffffffffffffffffffffff16145b91505092915050565b8273ffffffffffffffffffffffffffffffffffffffff1661127982610b66565b73ffffffffffffffffffffffffffffffffffffffff16146112cf576040517f08c379a00000000000000000000000000000000000000000000000000000000081526004016112c6906129ae565b60405180910390fd5b600073ffffffffffffffffffffffffffffffffffffffff168273ffffffffffffffffffffffffffffffffffffffff16141561133f576040517f08c379a0000000000000000000000000000000000000000000000000000000008152600401611336906129ee565b60405180910390fd5b61134c8383836001611ba9565b8273ffffffffffffffffffffffffffffffffffffffff1661136c82610b66565b73ffffffffffffffffffffffffffffffffffffffff16146113c2576040517f08c379a00000000000000000000000000000000000000000000000000000000081526004016113b9906129ae565b60405180910390fd5b6004600082815260200190815260200160002060006101000a81549073ffffffffffffffffffffffffffffffffffffffff02191690556001600360008573ffffffffffffffffffffffffffffffffffffffff1673ffffffffffffffffffffffffffffffffffffffff168152602001908152602001600020600082825403925050819055506001600360008473ffffffffffffffffffffffffffffffffffffffff1673ffffffffffffffffffffffffffffffffffffffff16815260200190815260200160002060008282540192505081905550816002600083815260200190815260200160002060006101000a81548173ffffffffffffffffffffffffffffffffffffffff021916908373ffffffffffffffffffffffffffffffffffffffff160217905550808273ffffffffffffffffffffffffffffffffffffffff168473ffffffffffffffffffffffffffffffffffffffff167fddf252ad1be2c89b69c2b068fc378daa952ba7f163c4a11628f55a4df523b3ef60405160405180910390a461154e8383836001611baf565b505050565b61155b611103565b73ffffffffffffffffffffffffffffffffffffffff16611579610cb9565b73ffffffffffffffffffffffffffffffffffffffff16146115cf576040517f08c379a00000000000000000000000000000000000000000000000000000000081526004016115c690612a8e565b60405180910390fd5b565b6001816000016000828254019250508190555050565b600081600001549050919050565b61160f828260405180602001604052806000815250611bb5565b5050565b600061161e82610b66565b905061162e816000846001611ba9565b61163782610b66565b90506004600083815260200190815260200160002060006101000a81549073ffffffffffffffffffffffffffffffffffffffff02191690556001600360008373ffffffffffffffffffffffffffffffffffffffff1673ffffffffffffffffffffffffffffffffffffffff168152602001908152602001600020600082825403925050819055506002600083815260200190815260200160002060006101000a81549073ffffffffffffffffffffffffffffffffffffffff021916905581600073ffffffffffffffffffffffffffffffffffffffff168273ffffffffffffffffffffffffffffffffffffffff167fddf252ad1be2c89b69c2b068fc378daa952ba7f163c4a11628f55a4df523b3ef60405160405180910390a461175d816000846001611baf565b5050565b60006002600083815260200190815260200160002060009054906101000a900473ffffffffffffffffffffffffffffffffffffffff169050919050565b6000600660009054906101000a900473ffffffffffffffffffffffffffffffffffffffff16905081600660006101000a81548173ffffffffffffffffffffffffffffffffffffffff021916908373ffffffffffffffffffffffffffffffffffffffff1602179055508173ffffffffffffffffffffffffffffffffffffffff168173ffffffffffffffffffffffffffffffffffffffff167f8be0079c531659141344cd1fd0a4f28419497f9722a3daafe3b4186f6b6457e060405160405180910390a35050565b8173ffffffffffffffffffffffffffffffffffffffff168373ffffffffffffffffffffffffffffffffffffffff1614156118d3576040517f08c379a00000000000000000000000000000000000000000000000000000000081526004016118ca90612a0e565b60405180910390fd5b80600560008573ffffffffffffffffffffffffffffffffffffffff1673ffffffffffffffffffffffffffffffffffffffff16815260200190815260200160002060008473ffffffffffffffffffffffffffffffffffffffff1673ffffffffffffffffffffffffffffffffffffffff16815260200190815260200160002060006101000a81548160ff0219169083151502179055508173ffffffffffffffffffffffffffffffffffffffff168373ffffffffffffffffffffffffffffffffffffffff167f17307eab39ab6107e8899845ad3d59bd9653f200f220920489ca2b5937696c31836040516119c49190612911565b60405180910390a3505050565b6119dc848484611259565b6119e884848484611c10565b611a27576040517f08c379a0000000000000000000000000000000000000000000000000000000008152600401611a1e9061296e565b60405180910390fd5b50505050565b606060405180602001604052806000815250905090565b606060006001611a5384611da7565b01905060008167ffffffffffffffff811115611a98577f4e487b7100000000000000000000000000000000000000000000000000000000600052604160045260246000fd5b6040519080825280601f01601f191660200182016040528015611aca5781602001600182028036833780820191505090505b509050600082602001820190505b600115611b5d578080600190039150507f3031323334353637383961626364656600000000000000000000000000000000600a86061a8153600a8581611b47577f4e487b7100000000000000000000000000000000000000000000000000000000600052601260045260246000fd5b0494506000851415611b5857611b5d565b611ad8565b819350505050919050565b60008073ffffffffffffffffffffffffffffffffffffffff16611b8a83611761565b73ffffffffffffffffffffffffffffffffffffffff1614159050919050565b50505050565b50505050565b611bbf8383611fde565b611bcc6000848484611c10565b611c0b576040517f08c379a0000000000000000000000000000000000000000000000000000000008152600401611c029061296e565b60405180910390fd5b505050565b6000611c318473ffffffffffffffffffffffffffffffffffffffff166121fc565b15611d9a578373ffffffffffffffffffffffffffffffffffffffff1663150b7a02611c5a611103565b8786866040518563ffffffff1660e01b8152600401611c7c94939291906128c5565b602060405180830381600087803b158015611c9657600080fd5b505af1925050508015611cc757506040513d601f19601f82011682018060405250810190611cc491906124f7565b60015b611d4a573d8060008114611cf7576040519150601f19603f3d011682016040523d82523d6000602084013e611cfc565b606091505b50600081511415611d42576040517f08c379a0000000000000000000000000000000000000000000000000000000008152600401611d399061296e565b60405180910390fd5b805181602001fd5b63150b7a0260e01b7bffffffffffffffffffffffffffffffffffffffffffffffffffffffff1916817bffffffffffffffffffffffffffffffffffffffffffffffffffffffff191614915050611d9f565b600190505b949350505050565b600080600090507a184f03e93ff9f4daa797ed6e38ed64bf6a1f0100000000000000008310611e2b577a184f03e93ff9f4daa797ed6e38ed64bf6a1f0100000000000000008381611e21577f4e487b7100000000000000000000000000000000000000000000000000000000600052601260045260246000fd5b0492506040810190505b6d04ee2d6d415b85acef81000000008310611e8e576d04ee2d6d415b85acef81000000008381611e84577f4e487b7100000000000000000000000000000000000000000000000000000000600052601260045260246000fd5b0492506020810190505b662386f26fc100008310611ee357662386f26fc100008381611ed9577f4e487b7100000000000000000000000000000000000000000000000000000000600052601260045260246000fd5b0492506010810190505b6305f5e1008310611f32576305f5e1008381611f28577f4e487b7100000000000000000000000000000000000000000000000000000000600052601260045260246000fd5b0492506008810190505b6127108310611f7d576127108381611f73577f4e487b7100000000000000000000000000000000000000000000000000000000600052601260045260246000fd5b0492506004810190505b60648310611fc65760648381611fbc577f4e487b7100000000000000000000000000000000000000000000000000000000600052601260045260246000fd5b0492506002810190505b600a8310611fd5576001810190505b80915050919050565b600073ffffffffffffffffffffffffffffffffffffffff168273ffffffffffffffffffffffffffffffffffffffff16141561204e576040517f08c379a000000000000000000000000000000000000000000000000000000000815260040161204590612a6e565b60405180910390fd5b61205781611b68565b15612097576040517f08c379a000000000000000000000000000000000000000000000000000000000815260040161208e906129ce565b60405180910390fd5b6120a5600083836001611ba9565b6120ae81611b68565b156120ee576040517f08c379a00000000000000000000000000000000000000000000000000000000081526004016120e5906129ce565b60405180910390fd5b6001600360008473ffffffffffffffffffffffffffffffffffffffff1673ffffffffffffffffffffffffffffffffffffffff16815260200190815260200160002060008282540192505081905550816002600083815260200190815260200160002060006101000a81548173ffffffffffffffffffffffffffffffffffffffff021916908373ffffffffffffffffffffffffffffffffffffffff160217905550808273ffffffffffffffffffffffffffffffffffffffff16600073ffffffffffffffffffffffffffffffffffffffff167fddf252ad1be2c89b69c2b068fc378daa952ba7f163c4a11628f55a4df523b3ef60405160405180910390a46121f8600083836001611baf565b5050565b6000808273ffffffffffffffffffffffffffffffffffffffff163b119050919050565b60405180606001604052806000815260200160008152602001600073ffffffffffffffffffffffffffffffffffffffff1681525090565b600061226961226484612bc0565b612b9b565b90508281526020810184848401111561228157600080fd5b61228c848285612ca8565b509392505050565b6000813590506122a38161319f565b92915050565b6000813590506122b8816131b6565b92915050565b6000813590506122cd816131cd565b92915050565b6000815190506122e2816131cd565b92915050565b600082601f8301126122f957600080fd5b8135612309848260208601612256565b91505092915050565b600081359050612321816131e4565b92915050565b60006020828403121561233957600080fd5b600061234784828501612294565b91505092915050565b6000806040838503121561236357600080fd5b600061237185828601612294565b925050602061238285828601612294565b9150509250929050565b6000806000606084860312156123a157600080fd5b60006123af86828701612294565b93505060206123c086828701612294565b92505060406123d186828701612312565b9150509250925092565b600080600080608085870312156123f157600080fd5b60006123ff87828801612294565b945050602061241087828801612294565b935050604061242187828801612312565b925050606085013567ffffffffffffffff81111561243e57600080fd5b61244a878288016122e8565b91505092959194509250565b6000806040838503121561246957600080fd5b600061247785828601612294565b9250506020612488858286016122a9565b9150509250929050565b600080604083850312156124a557600080fd5b60006124b385828601612294565b92505060206124c485828601612312565b9150509250929050565b6000602082840312156124e057600080fd5b60006124ee848285016122be565b91505092915050565b60006020828403121561250957600080fd5b6000612517848285016122d3565b91505092915050565b60006020828403121561253257600080fd5b600061254084828501612312565b91505092915050565b61255281612c34565b82525050565b61256181612c34565b82525050565b61257081612c46565b82525050565b600061258182612bf1565b61258b8185612c07565b935061259b818560208601612cb7565b6125a481612dab565b840191505092915050565b60006125ba82612bfc565b6125c48185612c18565b93506125d4818560208601612cb7565b6125dd81612dab565b840191505092915050565b60006125f382612bfc565b6125fd8185612c29565b935061260d818560208601612cb7565b80840191505092915050565b6000612626602d83612c18565b915061263182612dbc565b604082019050919050565b6000612649603283612c18565b915061265482612e0b565b604082019050919050565b600061266c602683612c18565b915061267782612e5a565b604082019050919050565b600061268f602583612c18565b915061269a82612ea9565b604082019050919050565b60006126b2601c83612c18565b91506126bd82612ef8565b602082019050919050565b60006126d5602483612c18565b91506126e082612f21565b604082019050919050565b60006126f8601983612c18565b915061270382612f70565b602082019050919050565b600061271b602c83612c18565b915061272682612f99565b604082019050919050565b600061273e602983612c18565b915061274982612fe8565b604082019050919050565b6000612761602083612c18565b915061276c82613037565b602082019050919050565b6000612784602083612c18565b915061278f82613060565b602082019050919050565b60006127a7601883612c18565b91506127b282613089565b602082019050919050565b60006127ca602183612c18565b91506127d5826130b2565b604082019050919050565b60006127ed603d83612c18565b91506127f882613101565b604082019050919050565b6000612810602683612c18565b915061281b82613150565b604082019050919050565b60608201600082015161283c6000850182612868565b50602082015161284f6020850182612868565b5060408201516128626040850182612549565b50505050565b61287181612c9e565b82525050565b61288081612c9e565b82525050565b600061289282856125e8565b915061289e82846125e8565b91508190509392505050565b60006020820190506128bf6000830184612558565b92915050565b60006080820190506128da6000830187612558565b6128e76020830186612558565b6128f46040830185612877565b81810360608301526129068184612576565b905095945050505050565b60006020820190506129266000830184612567565b92915050565b6000602082019050818103600083015261294681846125af565b905092915050565b6000602082019050818103600083015261296781612619565b9050919050565b600060208201905081810360008301526129878161263c565b9050919050565b600060208201905081810360008301526129a78161265f565b9050919050565b600060208201905081810360008301526129c781612682565b9050919050565b600060208201905081810360008301526129e7816126a5565b9050919050565b60006020820190508181036000830152612a07816126c8565b9050919050565b60006020820190508181036000830152612a27816126eb565b9050919050565b60006020820190508181036000830152612a478161270e565b9050919050565b60006020820190508181036000830152612a6781612731565b9050919050565b60006020820190508181036000830152612a8781612754565b9050919050565b60006020820190508181036000830152612aa781612777565b9050919050565b60006020820190508181036000830152612ac78161279a565b9050919050565b60006020820190508181036000830152612ae7816127bd565b9050919050565b60006020820190508181036000830152612b07816127e0565b9050919050565b60006020820190508181036000830152612b2781612803565b9050919050565b6000606082019050612b436000830184612826565b92915050565b6000602082019050612b5e6000830184612877565b92915050565b6000606082019050612b796000830186612877565b612b866020830185612877565b612b936040830184612558565b949350505050565b6000612ba5612bb6565b9050612bb18282612d1c565b919050565b6000604051905090565b600067ffffffffffffffff821115612bdb57612bda612d7c565b5b612be482612dab565b9050602081019050919050565b600081519050919050565b600081519050919050565b600082825260208201905092915050565b600082825260208201905092915050565b600081905092915050565b6000612c3f82612c7e565b9050919050565b60008115159050919050565b60007fffffffff0000000000000000000000000000000000000000000000000000000082169050919050565b600073ffffffffffffffffffffffffffffffffffffffff82169050919050565b6000819050919050565b82818337600083830152505050565b60005b83811015612cd5578082015181840152602081019050612cba565b83811115612ce4576000848401525b50505050565b60006002820490506001821680612d0257607f821691505b60208210811415612d1657612d15612d4d565b5b50919050565b612d2582612dab565b810181811067ffffffffffffffff82111715612d4457612d43612d7c565b5b80604052505050565b7f4e487b7100000000000000000000000000000000000000000000000000000000600052602260045260246000fd5b7f4e487b7100000000000000000000000000000000000000000000000000000000600052604160045260246000fd5b6000601f19601f8301169050919050565b7f4552433732313a2063616c6c6572206973206e6f7420746f6b656e206f776e6560008201527f72206f7220617070726f76656400000000000000000000000000000000000000602082015250565b7f4552433732313a207472616e7366657220746f206e6f6e20455243373231526560008201527f63656976657220696d706c656d656e7465720000000000000000000000000000602082015250565b7f4f776e61626c653a206e6577206f776e657220697320746865207a65726f206160008201527f6464726573730000000000000000000000000000000000000000000000000000602082015250565b7f4552433732313a207472616e736665722066726f6d20696e636f72726563742060008201527f6f776e6572000000000000000000000000000000000000000000000000000000602082015250565b7f4552433732313a20746f6b656e20616c7265616479206d696e74656400000000600082015250565b7f4552433732313a207472616e7366657220746f20746865207a65726f2061646460008201527f7265737300000000000000000000000000000000000000000000000000000000602082015250565b7f4552433732313a20617070726f766520746f2063616c6c657200000000000000600082015250565b7f556e7374616b654e46543a206e6577206f70657261746f72206973207468652060008201527f7a65726f20616464726573730000000000000000000000000000000000000000602082015250565b7f4552433732313a2061646472657373207a65726f206973206e6f74206120766160008201527f6c6964206f776e65720000000000000000000000000000000000000000000000602082015250565b7f4552433732313a206d696e7420746f20746865207a65726f2061646472657373600082015250565b7f4f776e61626c653a2063616c6c6572206973206e6f7420746865206f776e6572600082015250565b7f4552433732313a20696e76616c696420746f6b656e2049440000000000000000600082015250565b7f4552433732313a20617070726f76616c20746f2063757272656e74206f776e6560008201527f7200000000000000000000000000000000000000000000000000000000000000602082015250565b7f4552433732313a20617070726f76652063616c6c6572206973206e6f7420746f60008201527f6b656e206f776e6572206f7220617070726f76656420666f7220616c6c000000602082015250565b7f556e7374616b654e46543a2063616c6c6572206973206e6f7420746865206f7060008201527f657261746f720000000000000000000000000000000000000000000000000000602082015250565b6131a881612c34565b81146131b357600080fd5b50565b6131bf81612c46565b81146131ca57600080fd5b50565b6131d681612c52565b81146131e157600080fd5b50565b6131ed81612c9e565b81146131f857600080fd5b5056fea2646970667358221220b54e49a3025c3c7d237dc756d78d1c0d179f8da031e7ddba6c2aaa3962bd7e9e64736f6c63430008010033",
  "linkReferences": {},
  "deployedLinkReferences": {}
}