{
  "_format": "hh-sol-artifact-1",
  "contractName": "XGASToken",
  "sourceName": "contracts/xGASToken.sol",
  "abi": [
    {
      "inputs": [],
      "stateMutability": "nonpayable",
      "type": "constructor"
    },
    {
      "anonymous": false,
      "inputs": [
        {
          "indexed": true,
          "internalType": "address",
          "name": "owner",
          "type": "address"
        },
        {
          "indexed": true,
          "internalType": "address",
          "name": "spender",
          "type": "address"
        },
        {
          "indexed": false,
          "internalType": "uint256",
          "name": "value",
          "type": "uint256"
        }
      ],
      "name": "Approval",
      "type": "event"
    },
    {
      "anonymous": false,
      "inputs": [
        {
          "indexed": true,
          "internalType": "address",
          "name": "previousOperator",
          "type": "address"
        },
        {
          "indexed": true,
          "internalType": "address",
          "name": "newOperator",
          "type": "address"
        }
      ],
      "name": "OperatorTransferred",
      "type": "event"
    },
    {
      "anonymous": false,
      "inputs": [
        {
          "indexed": true,
          "internalType": "address",
          "name": "previousOwner",
          "type": "address"
        },
        {
          "indexed": true,
          "internalType": "address",
          "name": "newOwner",
          "type": "address"
        }
      ],
      "name": "OwnershipTransferred",
      "type": "event"
    },
    {
      "anonymous": false,
      "inputs": [
        {
          "indexed": true,
          "internalType": "address",
          "name": "from",
          "type": "address"
        },
        {
          "indexed": true,
          "internalType": "address",
          "name": "to",
          "type": "address"
        },
        {
          "indexed": false,
          "internalType": "uint256",
          "name": "value",
          "type": "uint256"
        }
      ],
      "name": "Transfer",
      "type": "event"
    },
    {
      "inputs": [
        {
          "internalType": "address",
          "name": "owner",
          "type": "address"
        },
        {
          "internalType": "address",
          "name": "spender",
          "type": "address"
        }
      ],
      "name": "allowance",
      "outputs": [
        {
          "internalType": "uint256",
          "name": "",
          "type": "uint256"
        }
      ],
      "stateMutability": "view",
      "type": "function"
    },
    {
      "inputs": [
        {
          "internalType": "address",
          "name": "spender",
          "type": "address"
        },
        {
          "internalType": "uint256",
          "name": "amount",
          "type": "uint256"
        }
      ],
      "name": "approve",
      "outputs": [
        {
          "internalType": "bool",
          "name": "",
          "type": "bool"
        }
      ],
      "stateMutability": "nonpayable",
      "type": "function"
    },
    {
      "inputs": [
        {
          "internalType": "address",
          "name": "account",
          "type": "address"
        }
      ],
      "name": "balanceOf",
      "outputs": [
        {
          "internalType": "uint256",
          "name": "",
          "type": "uint256"
        }
      ],
      "stateMutability": "view",
      "type": "function"
    },
    {
      "inputs": [
        {
          "internalType": "address",
          "name": "from",
          "type": "address"
        },
        {
          "internalType": "uint256",
          "name": "amount",
          "type": "uint256"
        }
      ],
      "name": "burn",
      "outputs": [],
      "stateMutability": "nonpayable",
      "type": "function"
    },
    {
      "inputs": [],
      "name": "decimals",
      "outputs": [
        {
          "internalType": "uint8",
          "name": "",
          "type": "uint8"
        }
      ],
      "stateMutability": "view",
      "type": "function"
    },
    {
      "inputs": [
        {
          "internalType": "address",
          "name": "spender",
          "type": "address"
        },
        {
          "internalType": "uint256",
          "name": "subtractedValue",
          "type": "uint256"
        }
      ],
      "name": "decreaseAllowance",
      "outputs": [
        {
          "internalType": "bool",
          "name": "",
          "type": "bool"
        }
      ],
      "stateMutability": "nonpayable",
      "type": "function"
    },
    {
      "inputs": [
        {
          "internalType": "address",
          "name": "spender",
          "type": "address"
        },
        {
          "internalType": "uint256",
          "name": "addedValue",
          "type": "uint256"
        }
      ],
      "name": "increaseAllowance",
      "outputs": [
        {
          "internalType": "bool",
          "name": "",
          "type": "bool"
        }
      ],
      "stateMutability": "nonpayable",
      "type": "function"
    },
    {
      "inputs": [
        {
          "internalType": "address",
          "name": "to",
          "type": "address"
        },
        {
          "internalType": "uint256",
          "name": "amount",
          "type": "uint256"
        }
      ],
      "name": "mint",
      "outputs": [],
      "stateMutability": "nonpayable",
      "type": "function"
    },
    {
      "inputs": [],
      "name": "name",
      "outputs": [
        {
          "internalType": "string",
          "name": "",
          "type": "string"
        }
      ],
      "stateMutability": "view",
      "type": "function"
    },
    {
      "inputs": [],
      "name": "operator",
      "outputs": [
        {
          "internalType": "address",
          "name": "",
          "type": "address"
        }
      ],
      "stateMutability": "view",
      "type": "function"
    },
    {
      "inputs": [],
      "name": "owner",
      "outputs": [
        {
          "internalType": "address",
          "name": "",
          "type": "address"
        }
      ],
      "stateMutability": "view",
      "type": "function"
    },
    {
      "inputs": [],
      "name": "renounceOwnership",
      "outputs": [],
      "stateMutability": "nonpayable",
      "type": "function"
    },
    {
      "inputs": [],
      "name": "symbol",
      "outputs": [
        {
          "internalType": "string",
          "name": "",
          "type": "string"
        }
      ],
      "stateMutability": "view",
      "type": "function"
    },
    {
      "inputs": [],
      "name": "totalSupply",
      "outputs": [
        {
          "internalType": "uint256",
          "name": "",
          "type": "uint256"
        }
      ],
      "stateMutability": "view",
      "type": "function"
    },
    {
      "inputs": [
        {
          "internalType": "address",
          "name": "to",
          "type": "address"
        },
        {
          "internalType": "uint256",
          "name": "amount",
          "type": "uint256"
        }
      ],
      "name": "transfer",
      "outputs": [
        {
          "internalType": "bool",
          "name": "",
          "type": "bool"
        }
      ],
      "stateMutability": "nonpayable",
      "type": "function"
    },
    {
      "inputs": [
        {
          "internalType": "address",
          "name": "from",
          "type": "address"
        },
        {
          "internalType": "address",
          "name": "to",
          "type": "address"
        },
        {
          "internalType": "uint256",
          "name": "amount",
          "type": "uint256"
        }
      ],
      "name": "transferFrom",
      "outputs": [
        {
          "internalType": "bool",
          "name": "",
          "type": "bool"
        }
      ],
      "stateMutability": "nonpayable",
      "type": "function"
    },
    {
      "inputs": [
        {
          "internalType": "address",
          "name": "newOperator",
          "type": "address"
        }
      ],
      "name": "transferOperator",
      "outputs": [],
      "stateMutability": "nonpayable",
      "type": "function"
    },
    {
      "inputs": [
        {
          "internalType": "address",
          "name": "newOwner",
          "type": "address"
        }
      ],
      "name": "transferOwnership",
      "outputs": [],
      "stateMutability": "nonpayable",
      "type": "function"
    }
  ],
  "bytecode": "0x60806040523480156200001157600080fd5b506040518060400160405280600481526020017f78474153000000000000000000000000000000000000000000000000000000008152506040518060400160405280600481526020017f7847415300000000000000000000000000000000000000000000000000000000815250816003908051906020019062000096929190620001f6565b508060049080519060200190620000af929190620001f6565b505050620000d2620000c66200012860201b60201c565b6200013060201b60201c565b620000e26200012860201b60201c565b600660006101000a81548173ffffffffffffffffffffffffffffffffffffffff021916908373ffffffffffffffffffffffffffffffffffffffff1602179055506200030b565b600033905090565b6000600560009054906101000a900473ffffffffffffffffffffffffffffffffffffffff16905081600560006101000a81548173ffffffffffffffffffffffffffffffffffffffff021916908373ffffffffffffffffffffffffffffffffffffffff1602179055508173ffffffffffffffffffffffffffffffffffffffff168173ffffffffffffffffffffffffffffffffffffffff167f8be0079c531659141344cd1fd0a4f28419497f9722a3daafe3b4186f6b6457e060405160405180910390a35050565b8280546200020490620002a6565b90600052602060002090601f01602090048101928262000228576000855562000274565b82601f106200024357805160ff191683800117855562000274565b8280016001018555821562000274579182015b828111156200027357825182559160200191906001019062000256565b5b50905062000283919062000287565b5090565b5b80821115620002a257600081600090555060010162000288565b5090565b60006002820490506001821680620002bf57607f821691505b60208210811415620002d657620002d5620002dc565b5b50919050565b7f4e487b7100000000000000000000000000000000000000000000000000000000600052602260045260246000fd5b611f20806200031b6000396000f3fe608060405234801561001057600080fd5b50600436106101165760003560e01c806370a08231116100a25780639dc29fac116100715780639dc29fac146102d1578063a457c2d7146102ed578063a9059cbb1461031d578063dd62ed3e1461034d578063f2fde38b1461037d57610116565b806370a082311461025b578063715018a61461028b5780638da5cb5b1461029557806395d89b41146102b357610116565b806329605e77116100e957806329605e77146101b7578063313ce567146101d357806339509351146101f157806340c10f1914610221578063570ca7351461023d57610116565b806306fdde031461011b578063095ea7b31461013957806318160ddd1461016957806323b872dd14610187575b600080fd5b610123610399565b6040516101309190611729565b60405180910390f35b610153600480360381019061014e9190611458565b61042b565b604051610160919061170e565b60405180910390f35b61017161044e565b60405161017e919061190b565b60405180910390f35b6101a1600480360381019061019c9190611409565b610458565b6040516101ae919061170e565b60405180910390f35b6101d160048036038101906101cc91906113a4565b610487565b005b6101db6105bf565b6040516101e89190611926565b60405180910390f35b61020b60048036038101906102069190611458565b6105c8565b604051610218919061170e565b60405180910390f35b61023b60048036038101906102369190611458565b6105ff565b005b6102456106a4565b60405161025291906116f3565b60405180910390f35b610275600480360381019061027091906113a4565b6106ce565b604051610282919061190b565b60405180910390f35b610293610716565b005b61029d61072a565b6040516102aa91906116f3565b60405180910390f35b6102bb610754565b6040516102c89190611729565b60405180910390f35b6102eb60048036038101906102e69190611458565b6107e6565b005b61030760048036038101906103029190611458565b61088b565b604051610314919061170e565b60405180910390f35b61033760048036038101906103329190611458565b610902565b604051610344919061170e565b60405180910390f35b610367600480360381019061036291906113cd565b610925565b604051610374919061190b565b60405180910390f35b610397600480360381019061039291906113a4565b6109ac565b005b6060600380546103a890611a3b565b80601f01602080910402602001604051908101604052809291908181526020018280546103d490611a3b565b80156104215780601f106103f657610100808354040283529160200191610421565b820191906000526020600020905b81548152906001019060200180831161040457829003601f168201915b5050505050905090565b600080610436610a30565b9050610443818585610a38565b600191505092915050565b6000600254905090565b600080610463610a30565b9050610470858285610c03565b61047b858585610c8f565b60019150509392505050565b61048f610f07565b600073ffffffffffffffffffffffffffffffffffffffff168173ffffffffffffffffffffffffffffffffffffffff1614156104ff576040517f08c379a00000000000000000000000000000000000000000000000000000000081526004016104f69061184b565b60405180910390fd5b8073ffffffffffffffffffffffffffffffffffffffff16600660009054906101000a900473ffffffffffffffffffffffffffffffffffffffff1673ffffffffffffffffffffffffffffffffffffffff167f74da04524d50c64947f5dd5381ef1a4dca5cba8ed1d816243f9e48aa0b5617ed60405160405180910390a380600660006101000a81548173ffffffffffffffffffffffffffffffffffffffff021916908373ffffffffffffffffffffffffffffffffffffffff16021790555050565b60006012905090565b6000806105d3610a30565b90506105f48185856105e58589610925565b6105ef919061195d565b610a38565b600191505092915050565b600660009054906101000a900473ffffffffffffffffffffffffffffffffffffffff1673ffffffffffffffffffffffffffffffffffffffff16610640610a30565b73ffffffffffffffffffffffffffffffffffffffff1614610696576040517f08c379a000000000000000000000000000000000000000000000000000000000815260040161068d9061180b565b60405180910390fd5b6106a08282610f85565b5050565b6000600660009054906101000a900473ffffffffffffffffffffffffffffffffffffffff16905090565b60008060008373ffffffffffffffffffffffffffffffffffffffff1673ffffffffffffffffffffffffffffffffffffffff168152602001908152602001600020549050919050565b61071e610f07565b61072860006110dc565b565b6000600560009054906101000a900473ffffffffffffffffffffffffffffffffffffffff16905090565b60606004805461076390611a3b565b80601f016020809104026020016040519081016040528092919081815260200182805461078f90611a3b565b80156107dc5780601f106107b1576101008083540402835291602001916107dc565b820191906000526020600020905b8154815290600101906020018083116107bf57829003601f168201915b5050505050905090565b600660009054906101000a900473ffffffffffffffffffffffffffffffffffffffff1673ffffffffffffffffffffffffffffffffffffffff16610827610a30565b73ffffffffffffffffffffffffffffffffffffffff161461087d576040517f08c379a00000000000000000000000000000000000000000000000000000000081526004016108749061180b565b60405180910390fd5b61088782826111a2565b5050565b600080610896610a30565b905060006108a48286610925565b9050838110156108e9576040517f08c379a00000000000000000000000000000000000000000000000000000000081526004016108e0906118cb565b60405180910390fd5b6108f68286868403610a38565b60019250505092915050565b60008061090d610a30565b905061091a818585610c8f565b600191505092915050565b6000600160008473ffffffffffffffffffffffffffffffffffffffff1673ffffffffffffffffffffffffffffffffffffffff16815260200190815260200160002060008373ffffffffffffffffffffffffffffffffffffffff1673ffffffffffffffffffffffffffffffffffffffff16815260200190815260200160002054905092915050565b6109b4610f07565b600073ffffffffffffffffffffffffffffffffffffffff168173ffffffffffffffffffffffffffffffffffffffff161415610a24576040517f08c379a0000000000000000000000000000000000000000000000000000000008152600401610a1b9061178b565b60405180910390fd5b610a2d816110dc565b50565b600033905090565b600073ffffffffffffffffffffffffffffffffffffffff168373ffffffffffffffffffffffffffffffffffffffff161415610aa8576040517f08c379a0000000000000000000000000000000000000000000000000000000008152600401610a9f906118ab565b60405180910390fd5b600073ffffffffffffffffffffffffffffffffffffffff168273ffffffffffffffffffffffffffffffffffffffff161415610b18576040517f08c379a0000000000000000000000000000000000000000000000000000000008152600401610b0f906117ab565b60405180910390fd5b80600160008573ffffffffffffffffffffffffffffffffffffffff1673ffffffffffffffffffffffffffffffffffffffff16815260200190815260200160002060008473ffffffffffffffffffffffffffffffffffffffff1673ffffffffffffffffffffffffffffffffffffffff168152602001908152602001600020819055508173ffffffffffffffffffffffffffffffffffffffff168373ffffffffffffffffffffffffffffffffffffffff167f8c5be1e5ebec7d5bd14f71427d1e84f3dd0314c0f7b2291e5b200ac8c7c3b92583604051610bf6919061190b565b60405180910390a3505050565b6000610c0f8484610925565b90507fffffffffffffffffffffffffffffffffffffffffffffffffffffffffffffffff8114610c895781811015610c7b576040517f08c379a0000000000000000000000000000000000000000000000000000000008152600401610c72906117cb565b60405180910390fd5b610c888484848403610a38565b5b50505050565b600073ffffffffffffffffffffffffffffffffffffffff168373ffffffffffffffffffffffffffffffffffffffff161415610cff576040517f08c379a0000000000000000000000000000000000000000000000000000000008152600401610cf69061188b565b60405180910390fd5b600073ffffffffffffffffffffffffffffffffffffffff168273ffffffffffffffffffffffffffffffffffffffff161415610d6f576040517f08c379a0000000000000000000000000000000000000000000000000000000008152600401610d669061174b565b60405180910390fd5b610d7a838383611370565b60008060008573ffffffffffffffffffffffffffffffffffffffff1673ffffffffffffffffffffffffffffffffffffffff16815260200190815260200160002054905081811015610e00576040517f08c379a0000000000000000000000000000000000000000000000000000000008152600401610df7906117eb565b60405180910390fd5b8181036000808673ffffffffffffffffffffffffffffffffffffffff1673ffffffffffffffffffffffffffffffffffffffff16815260200190815260200160002081905550816000808573ffffffffffffffffffffffffffffffffffffffff1673ffffffffffffffffffffffffffffffffffffffff168152602001908152602001600020600082825401925050819055508273ffffffffffffffffffffffffffffffffffffffff168473ffffffffffffffffffffffffffffffffffffffff167fddf252ad1be2c89b69c2b068fc378daa952ba7f163c4a11628f55a4df523b3ef84604051610eee919061190b565b60405180910390a3610f01848484611375565b50505050565b610f0f610a30565b73ffffffffffffffffffffffffffffffffffffffff16610f2d61072a565b73ffffffffffffffffffffffffffffffffffffffff1614610f83576040517f08c379a0000000000000000000000000000000000000000000000000000000008152600401610f7a9061182b565b60405180910390fd5b565b600073ffffffffffffffffffffffffffffffffffffffff168273ffffffffffffffffffffffffffffffffffffffff161415610ff5576040517f08c379a0000000000000000000000000000000000000000000000000000000008152600401610fec906118eb565b60405180910390fd5b61100160008383611370565b8060026000828254611013919061195d565b92505081905550806000808473ffffffffffffffffffffffffffffffffffffffff1673ffffffffffffffffffffffffffffffffffffffff168152602001908152602001600020600082825401925050819055508173ffffffffffffffffffffffffffffffffffffffff16600073ffffffffffffffffffffffffffffffffffffffff167fddf252ad1be2c89b69c2b068fc378daa952ba7f163c4a11628f55a4df523b3ef836040516110c4919061190b565b60405180910390a36110d860008383611375565b5050565b6000600560009054906101000a900473ffffffffffffffffffffffffffffffffffffffff16905081600560006101000a81548173ffffffffffffffffffffffffffffffffffffffff021916908373ffffffffffffffffffffffffffffffffffffffff1602179055508173ffffffffffffffffffffffffffffffffffffffff168173ffffffffffffffffffffffffffffffffffffffff167f8be0079c531659141344cd1fd0a4f28419497f9722a3daafe3b4186f6b6457e060405160405180910390a35050565b600073ffffffffffffffffffffffffffffffffffffffff168273ffffffffffffffffffffffffffffffffffffffff161415611212576040517f08c379a00000000000000000000000000000000000000000000000000000000081526004016112099061186b565b60405180910390fd5b61121e82600083611370565b60008060008473ffffffffffffffffffffffffffffffffffffffff1673ffffffffffffffffffffffffffffffffffffffff168152602001908152602001600020549050818110156112a4576040517f08c379a000000000000000000000000000000000000000000000000000000000815260040161129b9061176b565b60405180910390fd5b8181036000808573ffffffffffffffffffffffffffffffffffffffff1673ffffffffffffffffffffffffffffffffffffffff1681526020019081526020016000208190555081600260008282540392505081905550600073ffffffffffffffffffffffffffffffffffffffff168373ffffffffffffffffffffffffffffffffffffffff167fddf252ad1be2c89b69c2b068fc378daa952ba7f163c4a11628f55a4df523b3ef84604051611357919061190b565b60405180910390a361136b83600084611375565b505050565b505050565b505050565b60008135905061138981611ebc565b92915050565b60008135905061139e81611ed3565b92915050565b6000602082840312156113b657600080fd5b60006113c48482850161137a565b91505092915050565b600080604083850312156113e057600080fd5b60006113ee8582860161137a565b92505060206113ff8582860161137a565b9150509250929050565b60008060006060848603121561141e57600080fd5b600061142c8682870161137a565b935050602061143d8682870161137a565b925050604061144e8682870161138f565b9150509250925092565b6000806040838503121561146b57600080fd5b60006114798582860161137a565b925050602061148a8582860161138f565b9150509250929050565b61149d816119b3565b82525050565b6114ac816119c5565b82525050565b60006114bd82611941565b6114c7818561194c565b93506114d7818560208601611a08565b6114e081611acb565b840191505092915050565b60006114f860238361194c565b915061150382611adc565b604082019050919050565b600061151b60228361194c565b915061152682611b2b565b604082019050919050565b600061153e60268361194c565b915061154982611b7a565b604082019050919050565b600061156160228361194c565b915061156c82611bc9565b604082019050919050565b6000611584601d8361194c565b915061158f82611c18565b602082019050919050565b60006115a760268361194c565b91506115b282611c41565b604082019050919050565b60006115ca60258361194c565b91506115d582611c90565b604082019050919050565b60006115ed60208361194c565b91506115f882611cdf565b602082019050919050565b6000611610602b8361194c565b915061161b82611d08565b604082019050919050565b600061163360218361194c565b915061163e82611d57565b604082019050919050565b600061165660258361194c565b915061166182611da6565b604082019050919050565b600061167960248361194c565b915061168482611df5565b604082019050919050565b600061169c60258361194c565b91506116a782611e44565b604082019050919050565b60006116bf601f8361194c565b91506116ca82611e93565b602082019050919050565b6116de816119f1565b82525050565b6116ed816119fb565b82525050565b60006020820190506117086000830184611494565b92915050565b600060208201905061172360008301846114a3565b92915050565b6000602082019050818103600083015261174381846114b2565b905092915050565b60006020820190508181036000830152611764816114eb565b9050919050565b600060208201905081810360008301526117848161150e565b9050919050565b600060208201905081810360008301526117a481611531565b9050919050565b600060208201905081810360008301526117c481611554565b9050919050565b600060208201905081810360008301526117e481611577565b9050919050565b600060208201905081810360008301526118048161159a565b9050919050565b60006020820190508181036000830152611824816115bd565b9050919050565b60006020820190508181036000830152611844816115e0565b9050919050565b6000602082019050818103600083015261186481611603565b9050919050565b6000602082019050818103600083015261188481611626565b9050919050565b600060208201905081810360008301526118a481611649565b9050919050565b600060208201905081810360008301526118c48161166c565b9050919050565b600060208201905081810360008301526118e48161168f565b9050919050565b60006020820190508181036000830152611904816116b2565b9050919050565b600060208201905061192060008301846116d5565b92915050565b600060208201905061193b60008301846116e4565b92915050565b600081519050919050565b600082825260208201905092915050565b6000611968826119f1565b9150611973836119f1565b9250827fffffffffffffffffffffffffffffffffffffffffffffffffffffffffffffffff038211156119a8576119a7611a6d565b5b828201905092915050565b60006119be826119d1565b9050919050565b60008115159050919050565b600073ffffffffffffffffffffffffffffffffffffffff82169050919050565b6000819050919050565b600060ff82169050919050565b60005b83811015611a26578082015181840152602081019050611a0b565b83811115611a35576000848401525b50505050565b60006002820490506001821680611a5357607f821691505b60208210811415611a6757611a66611a9c565b5b50919050565b7f4e487b7100000000000000000000000000000000000000000000000000000000600052601160045260246000fd5b7f4e487b7100000000000000000000000000000000000000000000000000000000600052602260045260246000fd5b6000601f19601f8301169050919050565b7f45524332303a207472616e7366657220746f20746865207a65726f206164647260008201527f6573730000000000000000000000000000000000000000000000000000000000602082015250565b7f45524332303a206275726e20616d6f756e7420657863656564732062616c616e60008201527f6365000000000000000000000000000000000000000000000000000000000000602082015250565b7f4f776e61626c653a206e6577206f776e657220697320746865207a65726f206160008201527f6464726573730000000000000000000000000000000000000000000000000000602082015250565b7f45524332303a20617070726f766520746f20746865207a65726f20616464726560008201527f7373000000000000000000000000000000000000000000000000000000000000602082015250565b7f45524332303a20696e73756666696369656e7420616c6c6f77616e6365000000600082015250565b7f45524332303a207472616e7366657220616d6f756e742065786365656473206260008201527f616c616e63650000000000000000000000000000000000000000000000000000602082015250565b7f58474153546f6b656e3a2063616c6c6572206973206e6f7420746865206f706560008201527f7261746f72000000000000000000000000000000000000000000000000000000602082015250565b7f4f776e61626c653a2063616c6c6572206973206e6f7420746865206f776e6572600082015250565b7f58474153546f6b656e3a206e6577206f70657261746f7220697320746865207a60008201527f65726f2061646472657373000000000000000000000000000000000000000000602082015250565b7f45524332303a206275726e2066726f6d20746865207a65726f2061646472657360008201527f7300000000000000000000000000000000000000000000000000000000000000602082015250565b7f45524332303a207472616e736665722066726f6d20746865207a65726f20616460008201527f6472657373000000000000000000000000000000000000000000000000000000602082015250565b7f45524332303a20617070726f76652066726f6d20746865207a65726f2061646460008201527f7265737300000000000000000000000000000000000000000000000000000000602082015250565b7f45524332303a2064656372656173656420616c6c6f77616e63652062656c6f7760008201527f207a65726f000000000000000000000000000000000000000000000000000000602082015250565b7f45524332303a206d696e7420746f20746865207a65726f206164647265737300600082015250565b611ec5816119b3565b8114611ed057600080fd5b50565b611edc816119f1565b8114611ee757600080fd5b5056fea264697066735822122025cd0a1f62fb376e710f461934dffbf54e6fdb8af0d24177e393972247538a3064736f6c63430008010033",
  "linkReferences": {},
  "deployedLinkReferences": {}
}